{
  "contractName": "AccessControlManager",
  "abi": [
    {
      "inputs": [],
      "stateMutability": "nonpayable",
      "type": "constructor"
    },
    {
      "inputs": [],
      "name": "AccessControlBadConfirmation",
      "type": "error"
    },
    {
      "inputs": [
        {
          "internalType": "address",
          "name": "account",
          "type": "address"
        },
        {
          "internalType": "bytes32",
          "name": "neededRole",
          "type": "bytes32"
        }
      ],
      "name": "AccessControlUnauthorizedAccount",
      "type": "error"
    },
    {
      "anonymous": false,
      "inputs": [
        {
          "indexed": true,
          "internalType": "uint256",
          "name": "id",
          "type": "uint256"
        },
        {
          "indexed": true,
          "internalType": "address",
          "name": "participantAddress",
          "type": "address"
        },
        {
          "indexed": false,
          "internalType": "bytes32",
          "name": "role",
          "type": "bytes32"
        }
      ],
      "name": "ParticipantAdded",
      "type": "event"
    },
    {
      "anonymous": false,
      "inputs": [
        {
          "indexed": true,
          "internalType": "bytes32",
          "name": "role",
          "type": "bytes32"
        },
        {
          "indexed": true,
          "internalType": "bytes32",
          "name": "previousAdminRole",
          "type": "bytes32"
        },
        {
          "indexed": true,
          "internalType": "bytes32",
          "name": "newAdminRole",
          "type": "bytes32"
        }
      ],
      "name": "RoleAdminChanged",
      "type": "event"
    },
    {
      "anonymous": false,
      "inputs": [
        {
          "indexed": true,
          "internalType": "bytes32",
          "name": "role",
          "type": "bytes32"
        },
        {
          "indexed": true,
          "internalType": "address",
          "name": "account",
          "type": "address"
        },
        {
          "indexed": true,
          "internalType": "address",
          "name": "sender",
          "type": "address"
        }
      ],
      "name": "RoleGranted",
      "type": "event"
    },
    {
      "anonymous": false,
      "inputs": [
        {
          "indexed": true,
          "internalType": "bytes32",
          "name": "role",
          "type": "bytes32"
        },
        {
          "indexed": true,
          "internalType": "address",
          "name": "account",
          "type": "address"
        },
        {
          "indexed": true,
          "internalType": "address",
          "name": "sender",
          "type": "address"
        }
      ],
      "name": "RoleRevoked",
      "type": "event"
    },
    {
      "inputs": [],
      "name": "CLIENT_ROLE",
      "outputs": [
        {
          "internalType": "bytes32",
          "name": "",
          "type": "bytes32"
        }
      ],
      "stateMutability": "view",
      "type": "function"
    },
    {
      "inputs": [],
      "name": "DEFAULT_ADMIN_ROLE",
      "outputs": [
        {
          "internalType": "bytes32",
          "name": "",
          "type": "bytes32"
        }
      ],
      "stateMutability": "view",
      "type": "function"
    },
    {
      "inputs": [],
      "name": "DISTRIBUTOR_ROLE",
      "outputs": [
        {
          "internalType": "bytes32",
          "name": "",
          "type": "bytes32"
        }
      ],
      "stateMutability": "view",
      "type": "function"
    },
    {
      "inputs": [],
      "name": "MANUFACTURER_ROLE",
      "outputs": [
        {
          "internalType": "bytes32",
          "name": "",
          "type": "bytes32"
        }
      ],
      "stateMutability": "view",
      "type": "function"
    },
    {
      "inputs": [],
      "name": "RAW_MATERIAL_SUPPLIER_ROLE",
      "outputs": [
        {
          "internalType": "bytes32",
          "name": "",
          "type": "bytes32"
        }
      ],
      "stateMutability": "view",
      "type": "function"
    },
    {
      "inputs": [],
      "name": "RETAILER_ROLE",
      "outputs": [
        {
          "internalType": "bytes32",
          "name": "",
          "type": "bytes32"
        }
      ],
      "stateMutability": "view",
      "type": "function"
    },
    {
      "inputs": [
        {
          "internalType": "bytes32",
          "name": "role",
          "type": "bytes32"
        }
      ],
      "name": "getRoleAdmin",
      "outputs": [
        {
          "internalType": "bytes32",
          "name": "",
          "type": "bytes32"
        }
      ],
      "stateMutability": "view",
      "type": "function"
    },
    {
      "inputs": [
        {
          "internalType": "bytes32",
          "name": "role",
          "type": "bytes32"
        },
        {
          "internalType": "address",
          "name": "account",
          "type": "address"
        }
      ],
      "name": "grantRole",
      "outputs": [],
      "stateMutability": "nonpayable",
      "type": "function"
    },
    {
      "inputs": [
        {
          "internalType": "bytes32",
          "name": "role",
          "type": "bytes32"
        },
        {
          "internalType": "address",
          "name": "account",
          "type": "address"
        }
      ],
      "name": "hasRole",
      "outputs": [
        {
          "internalType": "bool",
          "name": "",
          "type": "bool"
        }
      ],
      "stateMutability": "view",
      "type": "function"
    },
    {
      "inputs": [
        {
          "internalType": "bytes32",
          "name": "role",
          "type": "bytes32"
        },
        {
          "internalType": "address",
          "name": "callerConfirmation",
          "type": "address"
        }
      ],
      "name": "renounceRole",
      "outputs": [],
      "stateMutability": "nonpayable",
      "type": "function"
    },
    {
      "inputs": [
        {
          "internalType": "bytes32",
          "name": "role",
          "type": "bytes32"
        },
        {
          "internalType": "address",
          "name": "account",
          "type": "address"
        }
      ],
      "name": "revokeRole",
      "outputs": [],
      "stateMutability": "nonpayable",
      "type": "function"
    },
    {
      "inputs": [
        {
          "internalType": "bytes4",
          "name": "interfaceId",
          "type": "bytes4"
        }
      ],
      "name": "supportsInterface",
      "outputs": [
        {
          "internalType": "bool",
          "name": "",
          "type": "bool"
        }
      ],
      "stateMutability": "view",
      "type": "function"
    },
    {
      "inputs": [
        {
          "internalType": "address",
          "name": "participantAddress",
          "type": "address"
        },
        {
          "internalType": "string",
          "name": "name",
          "type": "string"
        },
        {
          "internalType": "string",
          "name": "place",
          "type": "string"
        },
        {
          "internalType": "bytes32",
          "name": "role",
          "type": "bytes32"
        }
      ],
      "name": "addParticipant",
      "outputs": [],
      "stateMutability": "nonpayable",
      "type": "function"
    },
    {
      "inputs": [
        {
          "internalType": "address",
          "name": "participantAddress",
          "type": "address"
        }
      ],
      "name": "getParticipantId",
      "outputs": [
        {
          "internalType": "uint256",
          "name": "",
          "type": "uint256"
        }
      ],
      "stateMutability": "view",
      "type": "function"
    },
    {
      "inputs": [
        {
          "internalType": "uint256",
          "name": "id",
          "type": "uint256"
        }
      ],
      "name": "getParticipantAddress",
      "outputs": [
        {
          "internalType": "address",
          "name": "",
          "type": "address"
        }
      ],
      "stateMutability": "view",
      "type": "function"
    },
    {
      "inputs": [
        {
          "internalType": "uint256",
          "name": "id",
          "type": "uint256"
        }
      ],
      "name": "getParticipantDetails",
      "outputs": [
        {
          "components": [
            {
              "internalType": "uint256",
              "name": "id",
              "type": "uint256"
            },
            {
              "internalType": "address",
              "name": "participantAddress",
              "type": "address"
            },
            {
              "internalType": "string",
              "name": "name",
              "type": "string"
            },
            {
              "internalType": "string",
              "name": "place",
              "type": "string"
            },
            {
              "internalType": "bytes32",
              "name": "role",
              "type": "bytes32"
            }
          ],
          "internalType": "struct ParticipantLib.Participant",
          "name": "",
          "type": "tuple"
        }
      ],
      "stateMutability": "view",
      "type": "function"
    },
    {
      "inputs": [],
      "name": "getAllParticipantIds",
      "outputs": [
        {
          "internalType": "uint256[]",
          "name": "",
          "type": "uint256[]"
        }
      ],
      "stateMutability": "view",
      "type": "function"
    }
  ],
  "bytecode": "0x60806040523480156200001157600080fd5b50620000276000801b336200003860201b60201c565b5060018060000181905550620001ad565b60006200004c83836200013b60201b60201c565b6200013057600160008085815260200190815260200160002060000160008473ffffffffffffffffffffffffffffffffffffffff1673ffffffffffffffffffffffffffffffffffffffff16815260200190815260200160002060006101000a81548160ff021916908315150217905550620000cc620001a560201b60201c565b73ffffffffffffffffffffffffffffffffffffffff168273ffffffffffffffffffffffffffffffffffffffff16847f2f8788117e7eff1d82e926ec794901d17c78024a50270940304540a733656f0d60405160405180910390a46001905062000135565b600090505b92915050565b600080600084815260200190815260200160002060000160008373ffffffffffffffffffffffffffffffffffffffff1673ffffffffffffffffffffffffffffffffffffffff16815260200190815260200160002060009054906101000a900460ff16905092915050565b600033905090565b611e5980620001bd6000396000f3fe608060405234801561001057600080fd5b506004361061010b5760003560e01c806391464700116100a2578063bc9abea811610071578063bc9abea8146102de578063d547741f146102fc578063e326077614610318578063eae6f65214610336578063f0bd87cc146103545761010b565b8063914647001461025657806391d1485414610272578063965288b0146102a2578063a217fddf146102c05761010b565b806336568abe116100de57806336568abe146101aa5780635e7c857d146101c6578063635c06f2146101f657806370e1d658146102265761010b565b806301ffc9a7146101105780632115e7bf14610140578063248a9ca31461015e5780632f2ff15d1461018e575b600080fd5b61012a6004803603810190610125919061119c565b610372565b60405161013791906111e4565b60405180910390f35b6101486103ec565b6040516101559190611218565b60405180910390f35b6101786004803603810190610173919061125f565b610410565b6040516101859190611218565b60405180910390f35b6101a860048036038101906101a391906112ea565b61042f565b005b6101c460048036038101906101bf91906112ea565b610451565b005b6101e060048036038101906101db9190611360565b6104cc565b6040516101ed91906114c7565b60405180910390f35b610210600480360381019061020b9190611360565b6104ef565b60405161021d91906114f8565b60405180910390f35b610240600480360381019061023b9190611513565b61050c565b60405161024d919061154f565b60405180910390f35b610270600480360381019061026b919061169f565b610529565b005b61028c600480360381019061028791906112ea565b61063c565b60405161029991906111e4565b60405180910390f35b6102aa6106a6565b6040516102b79190611218565b60405180910390f35b6102c86106ca565b6040516102d59190611218565b60405180910390f35b6102e66106d1565b6040516102f391906117ed565b60405180910390f35b610316600480360381019061031191906112ea565b610781565b005b6103206107a3565b60405161032d9190611218565b60405180910390f35b61033e6107c7565b60405161034b9190611218565b60405180910390f35b61035c6107eb565b6040516103699190611218565b60405180910390f35b60007f7965db0b000000000000000000000000000000000000000000000000000000007bffffffffffffffffffffffffffffffffffffffffffffffffffffffff1916827bffffffffffffffffffffffffffffffffffffffffffffffffffffffff191614806103e557506103e48261080f565b5b9050919050565b7f2a5f906c256a5d799494fcd066e1f6c077689de1cdb65052a1624de4bace99bf81565b6000806000838152602001908152602001600020600101549050919050565b61043882610410565b61044181610879565b61044b838361088d565b50505050565b61045961097e565b73ffffffffffffffffffffffffffffffffffffffff168173ffffffffffffffffffffffffffffffffffffffff16146104bd576040517f6697b23200000000000000000000000000000000000000000000000000000000815260040160405180910390fd5b6104c78282610986565b505050565b6104d46110e8565b6104e8826001610a7890919063ffffffff16565b9050919050565b6000610505826001610c8890919063ffffffff16565b9050919050565b6000610522826001610d1d90919063ffffffff16565b9050919050565b6105366000801b3361063c565b610575576040517f08c379a000000000000000000000000000000000000000000000000000000000815260040161056c90611892565b60405180910390fd5b61057e81610dec565b6105bd576040517f08c379a00000000000000000000000000000000000000000000000000000000081526004016105b49061194a565b60405180910390fd5b60006105d9858585856001610ec090949392919063ffffffff16565b90506105e5828661088d565b508473ffffffffffffffffffffffffffffffffffffffff16817fc5bec2867a43aba2b93227166c755409d179f4ea9c2d65a3d70d978d2468b9858460405161062d9190611218565b60405180910390a35050505050565b600080600084815260200190815260200160002060000160008373ffffffffffffffffffffffffffffffffffffffff1673ffffffffffffffffffffffffffffffffffffffff16815260200190815260200160002060009054906101000a900460ff16905092915050565b7feefb95e842a3287179d933b4460be539a1d5af11aa8b325bb45c5c8dc92de4ed81565b6000801b81565b60606000600160000154905060008167ffffffffffffffff8111156106f9576106f8611574565b5b6040519080825280602002602001820160405280156107275781602001602082028036833780820191505090505b5090506000600190505b828110156107785780826001836107489190611999565b81518110610759576107586119cd565b5b6020026020010181815250508080610770906119fc565b915050610731565b50809250505090565b61078a82610410565b61079381610879565b61079d8383610986565b50505050565b7f463eda994401a3eac7c14104ee5d52ea8387d41eac3fbe156c61858d3416b8b281565b7fa5ff3ec7a96cdbba4d2d5172d66bbc73c6db3885f29b21be5da9fa7a7c02523281565b7ffbd454f36a7e1a388bd6fc3ab10d434aa4578f811acbbcf33afb1c697486313c81565b60007f01ffc9a7000000000000000000000000000000000000000000000000000000007bffffffffffffffffffffffffffffffffffffffffffffffffffffffff1916827bffffffffffffffffffffffffffffffffffffffffffffffffffffffff1916149050919050565b61088a8161088561097e565b611097565b50565b6000610899838361063c565b61097357600160008085815260200190815260200160002060000160008473ffffffffffffffffffffffffffffffffffffffff1673ffffffffffffffffffffffffffffffffffffffff16815260200190815260200160002060006101000a81548160ff02191690831515021790555061091061097e565b73ffffffffffffffffffffffffffffffffffffffff168273ffffffffffffffffffffffffffffffffffffffff16847f2f8788117e7eff1d82e926ec794901d17c78024a50270940304540a733656f0d60405160405180910390a460019050610978565b600090505b92915050565b600033905090565b6000610992838361063c565b15610a6d57600080600085815260200190815260200160002060000160008473ffffffffffffffffffffffffffffffffffffffff1673ffffffffffffffffffffffffffffffffffffffff16815260200190815260200160002060006101000a81548160ff021916908315150217905550610a0a61097e565b73ffffffffffffffffffffffffffffffffffffffff168273ffffffffffffffffffffffffffffffffffffffff16847ff6391f5c32d9c69d2a47ea670b442974b53935d1edc7fd64eb21e047a839171b60405160405180910390a460019050610a72565b600090505b92915050565b610a806110e8565b826000015482108015610a935750600082115b610ad2576040517f08c379a0000000000000000000000000000000000000000000000000000000008152600401610ac990611a90565b60405180910390fd5b8260010160008381526020019081526020016000206040518060a0016040529081600082015481526020016001820160009054906101000a900473ffffffffffffffffffffffffffffffffffffffff1673ffffffffffffffffffffffffffffffffffffffff1673ffffffffffffffffffffffffffffffffffffffff168152602001600282018054610b6290611adf565b80601f0160208091040260200160405190810160405280929190818152602001828054610b8e90611adf565b8015610bdb5780601f10610bb057610100808354040283529160200191610bdb565b820191906000526020600020905b815481529060010190602001808311610bbe57829003601f168201915b50505050508152602001600382018054610bf490611adf565b80601f0160208091040260200160405190810160405280929190818152602001828054610c2090611adf565b8015610c6d5780601f10610c4257610100808354040283529160200191610c6d565b820191906000526020600020905b815481529060010190602001808311610c5057829003601f168201915b50505050508152602001600482015481525050905092915050565b6000826000015482108015610c9d5750600082115b610cdc576040517f08c379a0000000000000000000000000000000000000000000000000000000008152600401610cd390611a90565b60405180910390fd5b82600101600083815260200190815260200160002060010160009054906101000a900473ffffffffffffffffffffffffffffffffffffffff16905092915050565b6000808360020160008473ffffffffffffffffffffffffffffffffffffffff1673ffffffffffffffffffffffffffffffffffffffff1681526020019081526020016000205403610da2576040517f08c379a0000000000000000000000000000000000000000000000000000000008152600401610d9990611a90565b60405180910390fd5b8260020160008373ffffffffffffffffffffffffffffffffffffffff1673ffffffffffffffffffffffffffffffffffffffff16815260200190815260200160002054905092915050565b60007f463eda994401a3eac7c14104ee5d52ea8387d41eac3fbe156c61858d3416b8b2821480610e3b57507feefb95e842a3287179d933b4460be539a1d5af11aa8b325bb45c5c8dc92de4ed82145b80610e6557507ffbd454f36a7e1a388bd6fc3ab10d434aa4578f811acbbcf33afb1c697486313c82145b80610e8f57507f2a5f906c256a5d799494fcd066e1f6c077689de1cdb65052a1624de4bace99bf82145b80610eb957507fa5ff3ec7a96cdbba4d2d5172d66bbc73c6db3885f29b21be5da9fa7a7c02523282145b9050919050565b6000808660020160008773ffffffffffffffffffffffffffffffffffffffff1673ffffffffffffffffffffffffffffffffffffffff1681526020019081526020016000205414610f45576040517f08c379a0000000000000000000000000000000000000000000000000000000008152600401610f3c90611b5c565b60405180910390fd5b6040518060a00160405280876000015481526020018673ffffffffffffffffffffffffffffffffffffffff16815260200185815260200184815260200183815250866001016000886000015481526020019081526020016000206000820151816000015560208201518160010160006101000a81548173ffffffffffffffffffffffffffffffffffffffff021916908373ffffffffffffffffffffffffffffffffffffffff16021790555060408201518160020190816110059190611d28565b50606082015181600301908161101b9190611d28565b506080820151816004015590505085600001548660020160008773ffffffffffffffffffffffffffffffffffffffff1673ffffffffffffffffffffffffffffffffffffffff16815260200190815260200160002081905550856000016000815480929190611088906119fc565b91905055905095945050505050565b6110a1828261063c565b6110e45780826040517fe2517d3f0000000000000000000000000000000000000000000000000000000081526004016110db929190611dfa565b60405180910390fd5b5050565b6040518060a0016040528060008152602001600073ffffffffffffffffffffffffffffffffffffffff1681526020016060815260200160608152602001600080191681525090565b6000604051905090565b600080fd5b600080fd5b60007fffffffff0000000000000000000000000000000000000000000000000000000082169050919050565b61117981611144565b811461118457600080fd5b50565b60008135905061119681611170565b92915050565b6000602082840312156111b2576111b161113a565b5b60006111c084828501611187565b91505092915050565b60008115159050919050565b6111de816111c9565b82525050565b60006020820190506111f960008301846111d5565b92915050565b6000819050919050565b611212816111ff565b82525050565b600060208201905061122d6000830184611209565b92915050565b61123c816111ff565b811461124757600080fd5b50565b60008135905061125981611233565b92915050565b6000602082840312156112755761127461113a565b5b60006112838482850161124a565b91505092915050565b600073ffffffffffffffffffffffffffffffffffffffff82169050919050565b60006112b78261128c565b9050919050565b6112c7816112ac565b81146112d257600080fd5b50565b6000813590506112e4816112be565b92915050565b600080604083850312156113015761130061113a565b5b600061130f8582860161124a565b9250506020611320858286016112d5565b9150509250929050565b6000819050919050565b61133d8161132a565b811461134857600080fd5b50565b60008135905061135a81611334565b92915050565b6000602082840312156113765761137561113a565b5b60006113848482850161134b565b91505092915050565b6113968161132a565b82525050565b6113a5816112ac565b82525050565b600081519050919050565b600082825260208201905092915050565b60005b838110156113e55780820151818401526020810190506113ca565b60008484015250505050565b6000601f19601f8301169050919050565b600061140d826113ab565b61141781856113b6565b93506114278185602086016113c7565b611430816113f1565b840191505092915050565b611444816111ff565b82525050565b600060a083016000830151611462600086018261138d565b506020830151611475602086018261139c565b506040830151848203604086015261148d8282611402565b915050606083015184820360608601526114a78282611402565b91505060808301516114bc608086018261143b565b508091505092915050565b600060208201905081810360008301526114e1818461144a565b905092915050565b6114f2816112ac565b82525050565b600060208201905061150d60008301846114e9565b92915050565b6000602082840312156115295761152861113a565b5b6000611537848285016112d5565b91505092915050565b6115498161132a565b82525050565b60006020820190506115646000830184611540565b92915050565b600080fd5b600080fd5b7f4e487b7100000000000000000000000000000000000000000000000000000000600052604160045260246000fd5b6115ac826113f1565b810181811067ffffffffffffffff821117156115cb576115ca611574565b5b80604052505050565b60006115de611130565b90506115ea82826115a3565b919050565b600067ffffffffffffffff82111561160a57611609611574565b5b611613826113f1565b9050602081019050919050565b82818337600083830152505050565b600061164261163d846115ef565b6115d4565b90508281526020810184848401111561165e5761165d61156f565b5b611669848285611620565b509392505050565b600082601f8301126116865761168561156a565b5b813561169684826020860161162f565b91505092915050565b600080600080608085870312156116b9576116b861113a565b5b60006116c7878288016112d5565b945050602085013567ffffffffffffffff8111156116e8576116e761113f565b5b6116f487828801611671565b935050604085013567ffffffffffffffff8111156117155761171461113f565b5b61172187828801611671565b92505060606117328782880161124a565b91505092959194509250565b600081519050919050565b600082825260208201905092915050565b6000819050602082019050919050565b6000611776838361138d565b60208301905092915050565b6000602082019050919050565b600061179a8261173e565b6117a48185611749565b93506117af8361175a565b8060005b838110156117e05781516117c7888261176a565b97506117d283611782565b9250506001810190506117b3565b5085935050505092915050565b60006020820190508181036000830152611807818461178f565b905092915050565b600082825260208201905092915050565b7f4163636573732044656e6965643a204f6e6c792061646d696e732063616e207060008201527f6572666f726d207468697320616374696f6e0000000000000000000000000000602082015250565b600061187c60328361180f565b915061188782611820565b604082019050919050565b600060208201905081810360008301526118ab8161186f565b9050919050565b7f496e76616c696420726f6c653a2076616c696420726f6c65732061726520524160008201527f575f4d4154455249414c5f535550504c4945522c204d414e554641435455524560208201527f522c204449535452494255544f522c2052455441494c45522c20434c49454e54604082015250565b600061193460608361180f565b915061193f826118b2565b606082019050919050565b6000602082019050818103600083015261196381611927565b9050919050565b7f4e487b7100000000000000000000000000000000000000000000000000000000600052601160045260246000fd5b60006119a48261132a565b91506119af8361132a565b92508282039050818111156119c7576119c661196a565b5b92915050565b7f4e487b7100000000000000000000000000000000000000000000000000000000600052603260045260246000fd5b6000611a078261132a565b91507fffffffffffffffffffffffffffffffffffffffffffffffffffffffffffffffff8203611a3957611a3861196a565b5b600182019050919050565b7f5061727469636970616e7420646f6573206e6f74206578697374000000000000600082015250565b6000611a7a601a8361180f565b9150611a8582611a44565b602082019050919050565b60006020820190508181036000830152611aa981611a6d565b9050919050565b7f4e487b7100000000000000000000000000000000000000000000000000000000600052602260045260246000fd5b60006002820490506001821680611af757607f821691505b602082108103611b0a57611b09611ab0565b5b50919050565b7f5061727469636970616e7420616c726561647920657869737473000000000000600082015250565b6000611b46601a8361180f565b9150611b5182611b10565b602082019050919050565b60006020820190508181036000830152611b7581611b39565b9050919050565b60008190508160005260206000209050919050565b60006020601f8301049050919050565b600082821b905092915050565b600060088302611bde7fffffffffffffffffffffffffffffffffffffffffffffffffffffffffffffffff82611ba1565b611be88683611ba1565b95508019841693508086168417925050509392505050565b6000819050919050565b6000611c25611c20611c1b8461132a565b611c00565b61132a565b9050919050565b6000819050919050565b611c3f83611c0a565b611c53611c4b82611c2c565b848454611bae565b825550505050565b600090565b611c68611c5b565b611c73818484611c36565b505050565b5b81811015611c9757611c8c600082611c60565b600181019050611c79565b5050565b601f821115611cdc57611cad81611b7c565b611cb684611b91565b81016020851015611cc5578190505b611cd9611cd185611b91565b830182611c78565b50505b505050565b600082821c905092915050565b6000611cff60001984600802611ce1565b1980831691505092915050565b6000611d188383611cee565b9150826002028217905092915050565b611d31826113ab565b67ffffffffffffffff811115611d4a57611d49611574565b5b611d548254611adf565b611d5f828285611c9b565b600060209050601f831160018114611d925760008415611d80578287015190505b611d8a8582611d0c565b865550611df2565b601f198416611da086611b7c565b60005b82811015611dc857848901518255600182019150602085019450602081019050611da3565b86831015611de55784890151611de1601f891682611cee565b8355505b6001600288020188555050505b505050505050565b6000604082019050611e0f60008301856114e9565b611e1c6020830184611209565b939250505056fea2646970667358221220489d1e913e6230049a8b08c397bd09094de726cd8040f3090cfe28d8ca79709764736f6c63430008140033",
  "immutableReferences": {},
  "source": "// SPDX-License-Identifier: MIT\r\npragma solidity ^0.8.0;\r\n\r\nimport \"./libraries/ParticipantLib.sol\";\r\nimport \"@openzeppelin/contracts/access/AccessControl.sol\";\r\n\r\ncontract AccessControlManager is AccessControl {\r\n    using ParticipantLib for ParticipantLib.Data;\r\n\r\n    bytes32 public constant RAW_MATERIAL_SUPPLIER_ROLE = keccak256(\"RAW_MATERIAL_SUPPLIER_ROLE\");\r\n    bytes32 public constant MANUFACTURER_ROLE = keccak256(\"MANUFACTURER_ROLE\");\r\n    bytes32 public constant DISTRIBUTOR_ROLE = keccak256(\"DISTRIBUTOR_ROLE\");\r\n    bytes32 public constant RETAILER_ROLE = keccak256(\"RETAILER_ROLE\");\r\n    bytes32 public constant CLIENT_ROLE = keccak256(\"CLIENT_ROLE\");\r\n\r\n    ParticipantLib.Data private participantData;\r\n\r\n    event ParticipantAdded(uint256 indexed id, address indexed participantAddress, bytes32 role);\r\n\r\n    modifier onlyAdmin() {\r\n        require(hasRole(DEFAULT_ADMIN_ROLE, msg.sender), \"Access Denied: Only admins can perform this action\");\r\n        _;\r\n    }\r\n\r\n    constructor() {\r\n        _grantRole(DEFAULT_ADMIN_ROLE, msg.sender);\r\n        participantData.nextId = 1;\r\n    }\r\n\r\n    function addParticipant(address participantAddress, string memory name, string memory place, bytes32 role) external onlyAdmin {\r\n        require(isRoleValid(role), \"Invalid role: valid roles are RAW_MATERIAL_SUPPLIER, MANUFACTURER, DISTRIBUTOR, RETAILER, CLIENT\");\r\n\r\n        uint256 id = participantData.addParticipant(participantAddress, name, place, role);\r\n        _grantRole(role, participantAddress);\r\n        emit ParticipantAdded(id, participantAddress, role);\r\n    }\r\n\r\n    function getParticipantId(address participantAddress) public view returns (uint256) {\r\n        return participantData.getParticipantId(participantAddress);\r\n    }\r\n\r\n    function getParticipantAddress(uint256 id) public view returns (address) {\r\n        return participantData.getParticipantAddress(id);\r\n    }\r\n\r\n    function getParticipantDetails(uint256 id) external view returns (ParticipantLib.Participant memory) {\r\n        return participantData.getParticipant(id);\r\n    }\r\n\r\n    function isRoleValid(bytes32 role) private pure returns (bool) {\r\n        return role == RAW_MATERIAL_SUPPLIER_ROLE || \r\n               role == MANUFACTURER_ROLE ||\r\n               role == DISTRIBUTOR_ROLE || \r\n               role == RETAILER_ROLE ||\r\n               role == CLIENT_ROLE;\r\n    }\r\n\r\n\r\n     function getAllParticipantIds() external view returns (uint256[] memory) {\r\n        uint256 totalParticipants = participantData.nextId;\r\n        uint256[] memory ids = new uint256[](totalParticipants);\r\n\r\n        for (uint256 i = 1; i < totalParticipants; i++) {\r\n            ids[i - 1] = i; \r\n        }\r\n        return ids;\r\n    }\r\n    \r\n}\r\n",
  "sourcePath": "E:\\cursuri\\ANUL3-SEM2\\Blockchain\\proiect\\Blockchain-Supply-Chain-Tracker\\contracts\\AccessControlManager.sol",
  "compiler": {
    "name": "solc",
    "version": "0.8.20+commit.a1b79de6.Emscripten.clang"
  },
  "schemaVersion": "3.4.16",
  "updatedAt": "2024-05-09T19:14:11.698Z",
  "devdoc": {
    "errors": {
      "AccessControlBadConfirmation()": [
        {
          "details": "The caller of a function is not the expected one. NOTE: Don't confuse with {AccessControlUnauthorizedAccount}."
        }
      ],
      "AccessControlUnauthorizedAccount(address,bytes32)": [
        {
          "details": "The `account` is missing a role."
        }
      ]
    },
    "events": {
      "RoleAdminChanged(bytes32,bytes32,bytes32)": {
        "details": "Emitted when `newAdminRole` is set as ``role``'s admin role, replacing `previousAdminRole` `DEFAULT_ADMIN_ROLE` is the starting admin for all roles, despite {RoleAdminChanged} not being emitted signaling this."
      },
      "RoleGranted(bytes32,address,address)": {
        "details": "Emitted when `account` is granted `role`. `sender` is the account that originated the contract call, an admin role bearer except when using {AccessControl-_setupRole}."
      },
      "RoleRevoked(bytes32,address,address)": {
        "details": "Emitted when `account` is revoked `role`. `sender` is the account that originated the contract call:   - if using `revokeRole`, it is the admin role bearer   - if using `renounceRole`, it is the role bearer (i.e. `account`)"
      }
    },
    "kind": "dev",
    "methods": {
      "getRoleAdmin(bytes32)": {
        "details": "Returns the admin role that controls `role`. See {grantRole} and {revokeRole}. To change a role's admin, use {_setRoleAdmin}."
      },
      "grantRole(bytes32,address)": {
        "details": "Grants `role` to `account`. If `account` had not been already granted `role`, emits a {RoleGranted} event. Requirements: - the caller must have ``role``'s admin role. May emit a {RoleGranted} event."
      },
      "hasRole(bytes32,address)": {
        "details": "Returns `true` if `account` has been granted `role`."
      },
      "renounceRole(bytes32,address)": {
        "details": "Revokes `role` from the calling account. Roles are often managed via {grantRole} and {revokeRole}: this function's purpose is to provide a mechanism for accounts to lose their privileges if they are compromised (such as when a trusted device is misplaced). If the calling account had been revoked `role`, emits a {RoleRevoked} event. Requirements: - the caller must be `callerConfirmation`. May emit a {RoleRevoked} event."
      },
      "revokeRole(bytes32,address)": {
        "details": "Revokes `role` from `account`. If `account` had been granted `role`, emits a {RoleRevoked} event. Requirements: - the caller must have ``role``'s admin role. May emit a {RoleRevoked} event."
      },
      "supportsInterface(bytes4)": {
        "details": "See {IERC165-supportsInterface}."
      }
    },
    "version": 1
  },
  "userdoc": {
    "kind": "user",
    "methods": {},
    "version": 1
  }
}