{
  "contractName": "ProductContract",
  "abi": [
    {
      "inputs": [
        {
          "internalType": "address",
          "name": "accessControlAddress",
          "type": "address"
        }
      ],
      "stateMutability": "nonpayable",
      "type": "constructor"
    },
    {
      "anonymous": false,
      "inputs": [
        {
          "indexed": true,
          "internalType": "uint256",
          "name": "productId",
          "type": "uint256"
        },
        {
          "indexed": false,
          "internalType": "uint256",
          "name": "clientId",
          "type": "uint256"
        },
        {
          "indexed": false,
          "internalType": "uint256",
          "name": "amountPaid",
          "type": "uint256"
        }
      ],
      "name": "ProductPurchased",
      "type": "event"
    },
    {
      "anonymous": false,
      "inputs": [
        {
          "indexed": true,
          "internalType": "uint256",
          "name": "productId",
          "type": "uint256"
        },
        {
          "indexed": false,
          "internalType": "enum StageLib.ProductStage",
          "name": "stage",
          "type": "uint8"
        }
      ],
      "name": "ProductStageUpdated",
      "type": "event"
    },
    {
      "inputs": [],
      "name": "nextProductId",
      "outputs": [
        {
          "internalType": "uint256",
          "name": "",
          "type": "uint256"
        }
      ],
      "stateMutability": "view",
      "type": "function"
    },
    {
      "inputs": [
        {
          "internalType": "uint256",
          "name": "",
          "type": "uint256"
        }
      ],
      "name": "products",
      "outputs": [
        {
          "components": [
            {
              "internalType": "uint256",
              "name": "id",
              "type": "uint256"
            },
            {
              "internalType": "string",
              "name": "name",
              "type": "string"
            },
            {
              "internalType": "string",
              "name": "description",
              "type": "string"
            },
            {
              "internalType": "uint256",
              "name": "price",
              "type": "uint256"
            }
          ],
          "internalType": "struct ProductLib.Product",
          "name": "details",
          "type": "tuple"
        },
        {
          "internalType": "enum StageLib.ProductStage",
          "name": "stage",
          "type": "uint8"
        },
        {
          "internalType": "uint256",
          "name": "supplierId",
          "type": "uint256"
        },
        {
          "internalType": "uint256",
          "name": "manufacturerId",
          "type": "uint256"
        },
        {
          "internalType": "uint256",
          "name": "distributorId",
          "type": "uint256"
        },
        {
          "internalType": "uint256",
          "name": "retailerId",
          "type": "uint256"
        },
        {
          "internalType": "uint256",
          "name": "clientId",
          "type": "uint256"
        }
      ],
      "stateMutability": "view",
      "type": "function"
    },
    {
      "inputs": [
        {
          "internalType": "string",
          "name": "name",
          "type": "string"
        },
        {
          "internalType": "string",
          "name": "description",
          "type": "string"
        }
      ],
      "name": "addProduct",
      "outputs": [],
      "stateMutability": "nonpayable",
      "type": "function"
    },
    {
      "inputs": [
        {
          "internalType": "uint256",
          "name": "productId",
          "type": "uint256"
        },
        {
          "internalType": "uint256",
          "name": "price",
          "type": "uint256"
        }
      ],
      "name": "setProductPrice",
      "outputs": [],
      "stateMutability": "nonpayable",
      "type": "function"
    },
    {
      "inputs": [
        {
          "internalType": "uint256",
          "name": "productId",
          "type": "uint256"
        },
        {
          "internalType": "enum StageLib.ProductStage",
          "name": "newStage",
          "type": "uint8"
        }
      ],
      "name": "updateProductStage",
      "outputs": [],
      "stateMutability": "nonpayable",
      "type": "function"
    },
    {
      "inputs": [
        {
          "internalType": "uint256",
          "name": "productId",
          "type": "uint256"
        }
      ],
      "name": "purchaseProduct",
      "outputs": [],
      "stateMutability": "payable",
      "type": "function"
    },
    {
      "inputs": [
        {
          "internalType": "uint256",
          "name": "productId",
          "type": "uint256"
        }
      ],
      "name": "getCurrentStage",
      "outputs": [
        {
          "internalType": "enum StageLib.ProductStage",
          "name": "",
          "type": "uint8"
        }
      ],
      "stateMutability": "view",
      "type": "function"
    },
    {
      "inputs": [],
      "name": "getAllProducts",
      "outputs": [
        {
          "components": [
            {
              "components": [
                {
                  "internalType": "uint256",
                  "name": "id",
                  "type": "uint256"
                },
                {
                  "internalType": "string",
                  "name": "name",
                  "type": "string"
                },
                {
                  "internalType": "string",
                  "name": "description",
                  "type": "string"
                },
                {
                  "internalType": "uint256",
                  "name": "price",
                  "type": "uint256"
                }
              ],
              "internalType": "struct ProductLib.Product",
              "name": "details",
              "type": "tuple"
            },
            {
              "internalType": "enum StageLib.ProductStage",
              "name": "stage",
              "type": "uint8"
            },
            {
              "internalType": "uint256",
              "name": "supplierId",
              "type": "uint256"
            },
            {
              "internalType": "uint256",
              "name": "manufacturerId",
              "type": "uint256"
            },
            {
              "internalType": "uint256",
              "name": "distributorId",
              "type": "uint256"
            },
            {
              "internalType": "uint256",
              "name": "retailerId",
              "type": "uint256"
            },
            {
              "internalType": "uint256",
              "name": "clientId",
              "type": "uint256"
            }
          ],
          "internalType": "struct ProductContract.Product[]",
          "name": "",
          "type": "tuple[]"
        }
      ],
      "stateMutability": "view",
      "type": "function"
    }
  ],
  "bytecode": "0x608060405260016002553480156200001657600080fd5b5060405162002de238038062002de283398181016040528101906200003c9190620000ed565b806000806101000a81548173ffffffffffffffffffffffffffffffffffffffff021916908373ffffffffffffffffffffffffffffffffffffffff160217905550506200011f565b600080fd5b600073ffffffffffffffffffffffffffffffffffffffff82169050919050565b6000620000b58262000088565b9050919050565b620000c781620000a8565b8114620000d357600080fd5b50565b600081519050620000e781620000bc565b92915050565b60006020828403121562000106576200010562000083565b5b60006200011684828501620000d6565b91505092915050565b612cb3806200012f6000396000f3fe60806040526004361061007b5760003560e01c80634de91a631161004e5780634de91a631461012d5780636a13931d146101585780637acc0b2014610181578063ca2efb55146101c45761007b565b806302ee3a52146100805780632458d472146100ab57806338e76a03146100e857806344d3498a14610104575b600080fd5b34801561008c57600080fd5b506100956101ed565b6040516100a29190611c0b565b60405180910390f35b3480156100b757600080fd5b506100d260048036038101906100cd9190611c6d565b610482565b6040516100df9190611ca9565b60405180910390f35b61010260048036038101906100fd9190611c6d565b6104f3565b005b34801561011057600080fd5b5061012b60048036038101906101269190611cc4565b6109fb565b005b34801561013957600080fd5b50610142610c27565b60405161014f9190611d13565b60405180910390f35b34801561016457600080fd5b5061017f600480360381019061017a9190611d53565b610c2d565b005b34801561018d57600080fd5b506101a860048036038101906101a39190611c6d565b611488565b6040516101bb9796959493929190611dfd565b60405180910390f35b3480156101d057600080fd5b506101eb60048036038101906101e69190611fa8565b611619565b005b606060006001600254610200919061204f565b67ffffffffffffffff81111561021957610218611e7d565b5b60405190808252806020026020018201604052801561025257816020015b61023f6118a6565b8152602001906001900390816102375790505b5090506000600190505b60025481101561047a57600160008281526020019081526020016000206040518060e001604052908160008201604051806080016040529081600082015481526020016001820180546102ae906120b2565b80601f01602080910402602001604051908101604052809291908181526020018280546102da906120b2565b80156103275780601f106102fc57610100808354040283529160200191610327565b820191906000526020600020905b81548152906001019060200180831161030a57829003601f168201915b50505050508152602001600282018054610340906120b2565b80601f016020809104026020016040519081016040528092919081815260200182805461036c906120b2565b80156103b95780601f1061038e576101008083540402835291602001916103b9565b820191906000526020600020905b81548152906001019060200180831161039c57829003601f168201915b5050505050815260200160038201548152505081526020016004820160009054906101000a900460ff1660058111156103f5576103f4611a62565b5b600581111561040757610406611a62565b5b8152602001600582015481526020016006820154815260200160078201548152602001600882015481526020016009820154815250508260018361044b919061204f565b8151811061045c5761045b6120e3565b5b6020026020010181905250808061047290612112565b91505061025c565b508091505090565b600060025482106104c8576040517f08c379a00000000000000000000000000000000000000000000000000000000081526004016104bf906121b7565b60405180910390fd5b6001600083815260200190815260200160002060040160009054906101000a900460ff169050919050565b6002548110610537576040517f08c379a000000000000000000000000000000000000000000000000000000000815260040161052e906121b7565b60405180910390fd5b60006001600083815260200190815260200160002090506004600581111561056257610561611a62565b5b8160040160009054906101000a900460ff16600581111561058657610585611a62565b5b146105c6576040517f08c379a00000000000000000000000000000000000000000000000000000000081526004016105bd90612249565b60405180910390fd5b60008054906101000a900473ffffffffffffffffffffffffffffffffffffffff1673ffffffffffffffffffffffffffffffffffffffff166391d1485460008054906101000a900473ffffffffffffffffffffffffffffffffffffffff1673ffffffffffffffffffffffffffffffffffffffff1663eae6f6526040518163ffffffff1660e01b8152600401602060405180830381865afa15801561066d573d6000803e3d6000fd5b505050506040513d601f19601f82011682018060405250810190610691919061229f565b336040518363ffffffff1660e01b81526004016106af92919061231c565b602060405180830381865afa1580156106cc573d6000803e3d6000fd5b505050506040513d601f19601f820116820180604052508101906106f0919061237d565b61072f576040517f08c379a00000000000000000000000000000000000000000000000000000000081526004016107269061241c565b60405180910390fd5b6004600581111561074357610742611a62565b5b8160040160009054906101000a900460ff16600581111561076757610766611a62565b5b036109f757806000016003015434146107b5576040517f08c379a00000000000000000000000000000000000000000000000000000000081526004016107ac906124ae565b60405180910390fd5b60008060009054906101000a900473ffffffffffffffffffffffffffffffffffffffff1673ffffffffffffffffffffffffffffffffffffffff1663635c06f283600801546040518263ffffffff1660e01b81526004016108159190611d13565b602060405180830381865afa158015610832573d6000803e3d6000fd5b505050506040513d601f19601f8201168201806040525081019061085691906124fa565b90508073ffffffffffffffffffffffffffffffffffffffff166108fc349081150290604051600060405180830381858888f1935050505015801561089e573d6000803e3d6000fd5b5060008054906101000a900473ffffffffffffffffffffffffffffffffffffffff1673ffffffffffffffffffffffffffffffffffffffff166370e1d658336040518263ffffffff1660e01b81526004016108f89190612527565b602060405180830381865afa158015610915573d6000803e3d6000fd5b505050506040513d601f19601f820116820180604052508101906109399190612557565b826009018190555060058260040160006101000a81548160ff0219169083600581111561096957610968611a62565b5b0217905550827fbc204f0d66f02b93dc53f5f031e6d79f10938175b847cdf2587aafe8ce4d923b8360090154346040516109a4929190612584565b60405180910390a2827fdb1adf3543039f5d54bb67ebf175b8ef7ba88285d54355d6c564b2478877a4428360040160009054906101000a900460ff166040516109ed9190611ca9565b60405180910390a2505b5050565b60025482108015610a53575060046005811115610a1b57610a1a611a62565b5b6001600084815260200190815260200160002060040160009054906101000a900460ff166005811115610a5157610a50611a62565b5b145b610a92576040517f08c379a0000000000000000000000000000000000000000000000000000000008152600401610a89906125f9565b60405180910390fd5b60008054906101000a900473ffffffffffffffffffffffffffffffffffffffff1673ffffffffffffffffffffffffffffffffffffffff166391d1485460008054906101000a900473ffffffffffffffffffffffffffffffffffffffff1673ffffffffffffffffffffffffffffffffffffffff16632115e7bf6040518163ffffffff1660e01b8152600401602060405180830381865afa158015610b39573d6000803e3d6000fd5b505050506040513d601f19601f82011682018060405250810190610b5d919061229f565b336040518363ffffffff1660e01b8152600401610b7b92919061231c565b602060405180830381865afa158015610b98573d6000803e3d6000fd5b505050506040513d601f19601f82011682018060405250810190610bbc919061237d565b610bfb576040517f08c379a0000000000000000000000000000000000000000000000000000000008152600401610bf290612665565b60405180910390fd5b610c23816001600085815260200190815260200160002060000161180f90919063ffffffff16565b5050565b60025481565b6002548210610c71576040517f08c379a0000000000000000000000000000000000000000000000000000000008152600401610c68906121b7565b60405180910390fd5b610c9e6001600084815260200190815260200160002060040160009054906101000a900460ff168261181c565b610cdd576040517f08c379a0000000000000000000000000000000000000000000000000000000008152600401610cd4906126d1565b60405180910390fd5b600060016000848152602001908152602001600020905060008060009054906101000a900473ffffffffffffffffffffffffffffffffffffffff1673ffffffffffffffffffffffffffffffffffffffff166370e1d658336040518263ffffffff1660e01b8152600401610d509190612527565b602060405180830381865afa158015610d6d573d6000803e3d6000fd5b505050506040513d601f19601f82011682018060405250810190610d919190612557565b905060016005811115610da757610da6611a62565b5b836005811115610dba57610db9611a62565b5b03610f365760008054906101000a900473ffffffffffffffffffffffffffffffffffffffff1673ffffffffffffffffffffffffffffffffffffffff166391d1485460008054906101000a900473ffffffffffffffffffffffffffffffffffffffff1673ffffffffffffffffffffffffffffffffffffffff1663e32607766040518163ffffffff1660e01b8152600401602060405180830381865afa158015610e66573d6000803e3d6000fd5b505050506040513d601f19601f82011682018060405250810190610e8a919061229f565b336040518363ffffffff1660e01b8152600401610ea892919061231c565b602060405180830381865afa158015610ec5573d6000803e3d6000fd5b505050506040513d601f19601f82011682018060405250810190610ee9919061237d565b610f28576040517f08c379a0000000000000000000000000000000000000000000000000000000008152600401610f1f90612789565b60405180910390fd5b80826005018190555061141e565b60026005811115610f4a57610f49611a62565b5b836005811115610f5d57610f5c611a62565b5b036110d95760008054906101000a900473ffffffffffffffffffffffffffffffffffffffff1673ffffffffffffffffffffffffffffffffffffffff166391d1485460008054906101000a900473ffffffffffffffffffffffffffffffffffffffff1673ffffffffffffffffffffffffffffffffffffffff1663965288b06040518163ffffffff1660e01b8152600401602060405180830381865afa158015611009573d6000803e3d6000fd5b505050506040513d601f19601f8201168201806040525081019061102d919061229f565b336040518363ffffffff1660e01b815260040161104b92919061231c565b602060405180830381865afa158015611068573d6000803e3d6000fd5b505050506040513d601f19601f8201168201806040525081019061108c919061237d565b6110cb576040517f08c379a00000000000000000000000000000000000000000000000000000000081526004016110c29061281b565b60405180910390fd5b80826006018190555061141d565b600360058111156110ed576110ec611a62565b5b836005811115611100576110ff611a62565b5b0361127c5760008054906101000a900473ffffffffffffffffffffffffffffffffffffffff1673ffffffffffffffffffffffffffffffffffffffff166391d1485460008054906101000a900473ffffffffffffffffffffffffffffffffffffffff1673ffffffffffffffffffffffffffffffffffffffff1663f0bd87cc6040518163ffffffff1660e01b8152600401602060405180830381865afa1580156111ac573d6000803e3d6000fd5b505050506040513d601f19601f820116820180604052508101906111d0919061229f565b336040518363ffffffff1660e01b81526004016111ee92919061231c565b602060405180830381865afa15801561120b573d6000803e3d6000fd5b505050506040513d601f19601f8201168201806040525081019061122f919061237d565b61126e576040517f08c379a0000000000000000000000000000000000000000000000000000000008152600401611265906128ad565b60405180910390fd5b80826007018190555061141c565b600460058111156112905761128f611a62565b5b8360058111156112a3576112a2611a62565b5b0361141b5760008054906101000a900473ffffffffffffffffffffffffffffffffffffffff1673ffffffffffffffffffffffffffffffffffffffff166391d1485460008054906101000a900473ffffffffffffffffffffffffffffffffffffffff1673ffffffffffffffffffffffffffffffffffffffff16632115e7bf6040518163ffffffff1660e01b8152600401602060405180830381865afa15801561134f573d6000803e3d6000fd5b505050506040513d601f19601f82011682018060405250810190611373919061229f565b336040518363ffffffff1660e01b815260040161139192919061231c565b602060405180830381865afa1580156113ae573d6000803e3d6000fd5b505050506040513d601f19601f820116820180604052508101906113d2919061237d565b611411576040517f08c379a00000000000000000000000000000000000000000000000000000000081526004016114089061293f565b60405180910390fd5b8082600801819055505b5b5b5b828260040160006101000a81548160ff0219169083600581111561144557611444611a62565b5b0217905550837fdb1adf3543039f5d54bb67ebf175b8ef7ba88285d54355d6c564b2478877a4428460405161147a9190611ca9565b60405180910390a250505050565b600160205280600052604060002060009150905080600001604051806080016040529081600082015481526020016001820180546114c5906120b2565b80601f01602080910402602001604051908101604052809291908181526020018280546114f1906120b2565b801561153e5780601f106115135761010080835404028352916020019161153e565b820191906000526020600020905b81548152906001019060200180831161152157829003601f168201915b50505050508152602001600282018054611557906120b2565b80601f0160208091040260200160405190810160405280929190818152602001828054611583906120b2565b80156115d05780601f106115a5576101008083540402835291602001916115d0565b820191906000526020600020905b8154815290600101906020018083116115b357829003601f168201915b50505050508152602001600382015481525050908060040160009054906101000a900460ff16908060050154908060060154908060070154908060080154908060090154905087565b60008054906101000a900473ffffffffffffffffffffffffffffffffffffffff1673ffffffffffffffffffffffffffffffffffffffff166391d1485460008054906101000a900473ffffffffffffffffffffffffffffffffffffffff1673ffffffffffffffffffffffffffffffffffffffff1663a217fddf6040518163ffffffff1660e01b8152600401602060405180830381865afa1580156116c0573d6000803e3d6000fd5b505050506040513d601f19601f820116820180604052508101906116e4919061229f565b336040518363ffffffff1660e01b815260040161170292919061231c565b602060405180830381865afa15801561171f573d6000803e3d6000fd5b505050506040513d601f19601f82011682018060405250810190611743919061237d565b611782576040517f08c379a0000000000000000000000000000000000000000000000000000000008152600401611779906129ab565b60405180910390fd5b6117b26002548383600160006002548152602001908152602001600020600001611869909392919063ffffffff16565b600060016000600254815260200190815260200160002060040160006101000a81548160ff021916908360058111156117ee576117ed611a62565b5b02179055506002600081548092919061180690612112565b91905055505050565b8082600301819055505050565b6000600183600581111561183357611832611a62565b5b61183d91906129cb565b8260058111156118505761184f611a62565b5b0361185e5760019050611863565b600090505b92915050565b828460000181905550818460010190816118839190612bab565b50808460020190816118959190612bab565b506000846003018190555050505050565b6040518060e001604052806118b96118fb565b8152602001600060058111156118d2576118d1611a62565b5b815260200160008152602001600081526020016000815260200160008152602001600081525090565b6040518060800160405280600081526020016060815260200160608152602001600081525090565b600081519050919050565b600082825260208201905092915050565b6000819050602082019050919050565b6000819050919050565b6119628161194f565b82525050565b600081519050919050565b600082825260208201905092915050565b60005b838110156119a2578082015181840152602081019050611987565b60008484015250505050565b6000601f19601f8301169050919050565b60006119ca82611968565b6119d48185611973565b93506119e4818560208601611984565b6119ed816119ae565b840191505092915050565b6000608083016000830151611a106000860182611959565b5060208301518482036020860152611a2882826119bf565b91505060408301518482036040860152611a4282826119bf565b9150506060830151611a576060860182611959565b508091505092915050565b7f4e487b7100000000000000000000000000000000000000000000000000000000600052602160045260246000fd5b60068110611aa257611aa1611a62565b5b50565b6000819050611ab382611a91565b919050565b6000611ac382611aa5565b9050919050565b611ad381611ab8565b82525050565b600060e0830160008301518482036000860152611af682826119f8565b9150506020830151611b0b6020860182611aca565b506040830151611b1e6040860182611959565b506060830151611b316060860182611959565b506080830151611b446080860182611959565b5060a0830151611b5760a0860182611959565b5060c0830151611b6a60c0860182611959565b508091505092915050565b6000611b818383611ad9565b905092915050565b6000602082019050919050565b6000611ba182611923565b611bab818561192e565b935083602082028501611bbd8561193f565b8060005b85811015611bf95784840389528151611bda8582611b75565b9450611be583611b89565b925060208a01995050600181019050611bc1565b50829750879550505050505092915050565b60006020820190508181036000830152611c258184611b96565b905092915050565b6000604051905090565b600080fd5b600080fd5b611c4a8161194f565b8114611c5557600080fd5b50565b600081359050611c6781611c41565b92915050565b600060208284031215611c8357611c82611c37565b5b6000611c9184828501611c58565b91505092915050565b611ca381611ab8565b82525050565b6000602082019050611cbe6000830184611c9a565b92915050565b60008060408385031215611cdb57611cda611c37565b5b6000611ce985828601611c58565b9250506020611cfa85828601611c58565b9150509250929050565b611d0d8161194f565b82525050565b6000602082019050611d286000830184611d04565b92915050565b60068110611d3b57600080fd5b50565b600081359050611d4d81611d2e565b92915050565b60008060408385031215611d6a57611d69611c37565b5b6000611d7885828601611c58565b9250506020611d8985828601611d3e565b9150509250929050565b6000608083016000830151611dab6000860182611959565b5060208301518482036020860152611dc382826119bf565b91505060408301518482036040860152611ddd82826119bf565b9150506060830151611df26060860182611959565b508091505092915050565b600060e0820190508181036000830152611e17818a611d93565b9050611e266020830189611c9a565b611e336040830188611d04565b611e406060830187611d04565b611e4d6080830186611d04565b611e5a60a0830185611d04565b611e6760c0830184611d04565b98975050505050505050565b600080fd5b600080fd5b7f4e487b7100000000000000000000000000000000000000000000000000000000600052604160045260246000fd5b611eb5826119ae565b810181811067ffffffffffffffff82111715611ed457611ed3611e7d565b5b80604052505050565b6000611ee7611c2d565b9050611ef38282611eac565b919050565b600067ffffffffffffffff821115611f1357611f12611e7d565b5b611f1c826119ae565b9050602081019050919050565b82818337600083830152505050565b6000611f4b611f4684611ef8565b611edd565b905082815260208101848484011115611f6757611f66611e78565b5b611f72848285611f29565b509392505050565b600082601f830112611f8f57611f8e611e73565b5b8135611f9f848260208601611f38565b91505092915050565b60008060408385031215611fbf57611fbe611c37565b5b600083013567ffffffffffffffff811115611fdd57611fdc611c3c565b5b611fe985828601611f7a565b925050602083013567ffffffffffffffff81111561200a57612009611c3c565b5b61201685828601611f7a565b9150509250929050565b7f4e487b7100000000000000000000000000000000000000000000000000000000600052601160045260246000fd5b600061205a8261194f565b91506120658361194f565b925082820390508181111561207d5761207c612020565b5b92915050565b7f4e487b7100000000000000000000000000000000000000000000000000000000600052602260045260246000fd5b600060028204905060018216806120ca57607f821691505b6020821081036120dd576120dc612083565b5b50919050565b7f4e487b7100000000000000000000000000000000000000000000000000000000600052603260045260246000fd5b600061211d8261194f565b91507fffffffffffffffffffffffffffffffffffffffffffffffffffffffffffffffff820361214f5761214e612020565b5b600182019050919050565b600082825260208201905092915050565b7f50726f6475637420646f6573206e6f7420657869737400000000000000000000600082015250565b60006121a160168361215a565b91506121ac8261216b565b602082019050919050565b600060208201905081810360008301526121d081612194565b9050919050565b7f50726f647563742073686f756c6420626520696e2052657461696c20696e206f60008201527f7264657220746f20627579000000000000000000000000000000000000000000602082015250565b6000612233602b8361215a565b915061223e826121d7565b604082019050919050565b6000602082019050818103600083015261226281612226565b9050919050565b6000819050919050565b61227c81612269565b811461228757600080fd5b50565b60008151905061229981612273565b92915050565b6000602082840312156122b5576122b4611c37565b5b60006122c38482850161228a565b91505092915050565b6122d581612269565b82525050565b600073ffffffffffffffffffffffffffffffffffffffff82169050919050565b6000612306826122db565b9050919050565b612316816122fb565b82525050565b600060408201905061233160008301856122cc565b61233e602083018461230d565b9392505050565b60008115159050919050565b61235a81612345565b811461236557600080fd5b50565b60008151905061237781612351565b92915050565b60006020828403121561239357612392611c37565b5b60006123a184828501612368565b91505092915050565b7f556e617574686f72697a65643a204f6e6c7920636c69656e74732063616e207060008201527f7572636861732070726f64756374730000000000000000000000000000000000602082015250565b6000612406602f8361215a565b9150612411826123aa565b604082019050919050565b60006020820190508181036000830152612435816123f9565b9050919050565b7f4d757374207061792065786163746c79207468652070726f647563742070726960008201527f6365000000000000000000000000000000000000000000000000000000000000602082015250565b600061249860228361215a565b91506124a38261243c565b604082019050919050565b600060208201905081810360008301526124c78161248b565b9050919050565b6124d7816122fb565b81146124e257600080fd5b50565b6000815190506124f4816124ce565b92915050565b6000602082840312156125105761250f611c37565b5b600061251e848285016124e5565b91505092915050565b600060208201905061253c600083018461230d565b92915050565b60008151905061255181611c41565b92915050565b60006020828403121561256d5761256c611c37565b5b600061257b84828501612542565b91505092915050565b60006040820190506125996000830185611d04565b6125a66020830184611d04565b9392505050565b7f50726f64756374206973206e6f742061742072657461696c2073746167650000600082015250565b60006125e3601e8361215a565b91506125ee826125ad565b602082019050919050565b60006020820190508181036000830152612612816125d6565b9050919050565b7f4f6e6c792072657461696c6572732063616e2073657420746865207072696365600082015250565b600061264f60208361215a565b915061265a82612619565b602082019050919050565b6000602082019050818103600083015261267e81612642565b9050919050565b7f496e76616c6964207374616765207472616e736974696f6e0000000000000000600082015250565b60006126bb60188361215a565b91506126c682612685565b602082019050919050565b600060208201905081810360008301526126ea816126ae565b9050919050565b7f556e617574686f72697a65643a204f6e6c7920726177206d6174657269616c2060008201527f737570706c696572732063616e2075706461746520746f20746869732073746160208201527f6765000000000000000000000000000000000000000000000000000000000000604082015250565b600061277360428361215a565b915061277e826126f1565b606082019050919050565b600060208201905081810360008301526127a281612766565b9050919050565b7f556e617574686f72697a65643a204f6e6c79206d616e7566616374757265727360008201527f2063616e2075706461746520746f207468697320737461676500000000000000602082015250565b600061280560398361215a565b9150612810826127a9565b604082019050919050565b60006020820190508181036000830152612834816127f8565b9050919050565b7f556e617574686f72697a65643a204f6e6c79206469737472696275746f72732060008201527f63616e2075706461746520746f20746869732073746167650000000000000000602082015250565b600061289760388361215a565b91506128a28261283b565b604082019050919050565b600060208201905081810360008301526128c68161288a565b9050919050565b7f556e617574686f72697a65643a204f6e6c792072657461696c6572732063616e60008201527f2075706461746520746f20746869732073746167650000000000000000000000602082015250565b600061292960358361215a565b9150612934826128cd565b604082019050919050565b600060208201905081810360008301526129588161291c565b9050919050565b7f4f6e6c792061646d696e2063616e206164642070726f64756374730000000000600082015250565b6000612995601b8361215a565b91506129a08261295f565b602082019050919050565b600060208201905081810360008301526129c481612988565b9050919050565b60006129d68261194f565b91506129e18361194f565b92508282019050808211156129f9576129f8612020565b5b92915050565b60008190508160005260206000209050919050565b60006020601f8301049050919050565b600082821b905092915050565b600060088302612a617fffffffffffffffffffffffffffffffffffffffffffffffffffffffffffffffff82612a24565b612a6b8683612a24565b95508019841693508086168417925050509392505050565b6000819050919050565b6000612aa8612aa3612a9e8461194f565b612a83565b61194f565b9050919050565b6000819050919050565b612ac283612a8d565b612ad6612ace82612aaf565b848454612a31565b825550505050565b600090565b612aeb612ade565b612af6818484612ab9565b505050565b5b81811015612b1a57612b0f600082612ae3565b600181019050612afc565b5050565b601f821115612b5f57612b30816129ff565b612b3984612a14565b81016020851015612b48578190505b612b5c612b5485612a14565b830182612afb565b50505b505050565b600082821c905092915050565b6000612b8260001984600802612b64565b1980831691505092915050565b6000612b9b8383612b71565b9150826002028217905092915050565b612bb482611968565b67ffffffffffffffff811115612bcd57612bcc611e7d565b5b612bd782546120b2565b612be2828285612b1e565b600060209050601f831160018114612c155760008415612c03578287015190505b612c0d8582612b8f565b865550612c75565b601f198416612c23866129ff565b60005b82811015612c4b57848901518255600182019150602085019450602081019050612c26565b86831015612c685784890151612c64601f891682612b71565b8355505b6001600288020188555050505b50505050505056fea2646970667358221220f73758cbef0d7418f13f9dfa2f100ab8cf71893f0939671a6be07e8dc06f66c764736f6c63430008140033",
  "immutableReferences": {},
  "source": "// SPDX-License-Identifier: MIT\r\npragma solidity ^0.8.0;\r\n\r\nimport \"./AccessControlManager.sol\";\r\nimport \"./libraries/ProductLib.sol\";\r\nimport \"./libraries/StageLib.sol\";\r\n\r\n\r\ncontract ProductContract {\r\n    using ProductLib for ProductLib.Product;\r\n    using StageLib for StageLib.ProductStage;\r\n\r\n    AccessControlManager accessControl;\r\n \r\n\r\n    struct Product {\r\n        ProductLib.Product details;\r\n        StageLib.ProductStage stage;\r\n        uint256 supplierId;\r\n        uint256 manufacturerId;\r\n        uint256 distributorId;\r\n        uint256 retailerId;\r\n        uint256 clientId;\r\n    }\r\n\r\n    mapping(uint256 => Product) public products;\r\n    uint256 public nextProductId = 1;\r\n\r\n    event ProductStageUpdated(uint256 indexed productId, StageLib.ProductStage stage);\r\n    event ProductPurchased(uint256 indexed productId, uint256 clientId, uint256 amountPaid);\r\n\r\n    constructor(address accessControlAddress) {\r\n        accessControl = AccessControlManager(accessControlAddress);\r\n    }\r\n\r\n    function addProduct(string memory name, string memory description) external {\r\n        require(accessControl.hasRole(accessControl.DEFAULT_ADMIN_ROLE(), msg.sender), \"Only admin can add products\");\r\n        products[nextProductId].details.createProduct(nextProductId, name, description);\r\n        products[nextProductId].stage = StageLib.ProductStage.Ordered;\r\n        nextProductId++;\r\n    }\r\n\r\n    function setProductPrice(uint256 productId, uint256 price) external {\r\n        require(productId < nextProductId && products[productId].stage == StageLib.ProductStage.Retail, \"Product is not at retail stage\");\r\n        require(accessControl.hasRole(accessControl.RETAILER_ROLE(), msg.sender), \"Only retailers can set the price\");\r\n        products[productId].details.setPrice(price);\r\n    }\r\n\r\n    function updateProductStage(uint256 productId, StageLib.ProductStage newStage) public {\r\n        require(productId < nextProductId, \"Product does not exist\");\r\n        require(isValidStageTransition(products[productId].stage, newStage), \"Invalid stage transition\");\r\n        \r\n        \r\n        Product storage product = products[productId];\r\n        uint256 participantId = accessControl.getParticipantId(msg.sender);\r\n\r\n        if (newStage == StageLib.ProductStage.RawMaterialsProcured) {\r\n            require(accessControl.hasRole(accessControl.RAW_MATERIAL_SUPPLIER_ROLE(), msg.sender), \"Unauthorized: Only raw material suppliers can update to this stage\");\r\n            product.supplierId = participantId;\r\n        } else if (newStage == StageLib.ProductStage.Manufactured) {\r\n            require(accessControl.hasRole(accessControl.MANUFACTURER_ROLE(), msg.sender), \"Unauthorized: Only manufacturers can update to this stage\");\r\n            product.manufacturerId = participantId;\r\n        } else if (newStage == StageLib.ProductStage.Distributed) {\r\n            require(accessControl.hasRole(accessControl.DISTRIBUTOR_ROLE(), msg.sender), \"Unauthorized: Only distributors can update to this stage\");\r\n            product.distributorId = participantId;\r\n        } else if (newStage == StageLib.ProductStage.Retail) {\r\n            require(accessControl.hasRole(accessControl.RETAILER_ROLE(), msg.sender), \"Unauthorized: Only retailers can update to this stage\");\r\n            product.retailerId = participantId;\r\n        }    \r\n       \r\n        product.stage = newStage;\r\n        emit ProductStageUpdated(productId, newStage); \r\n        \r\n    }\r\n\r\n    function isValidStageTransition(StageLib.ProductStage currentStage, StageLib.ProductStage newStage) internal pure returns (bool) {\r\n    if (uint(newStage) == uint(currentStage) + 1) {\r\n        return true;\r\n    }\r\n    return false;\r\n}\r\n\r\n    function purchaseProduct(uint256 productId) external payable {\r\n\r\n        require(productId < nextProductId, \"Product does not exist\");\r\n        Product storage product = products[productId];\r\n\r\n        require (product.stage == StageLib.ProductStage.Retail, \"Product should be in Retail in order to buy\");\r\n        require(accessControl.hasRole(accessControl.CLIENT_ROLE(), msg.sender), \"Unauthorized: Only clients can purchas products\");\r\n\r\n        if (product.stage == StageLib.ProductStage.Retail) {\r\n            \r\n            require(msg.value == product.details.price, \"Must pay exactly the product price\");\r\n            address payable recipient = payable(accessControl.getParticipantAddress(product.retailerId));\r\n            recipient.transfer(msg.value); \r\n            product.clientId = accessControl.getParticipantId(msg.sender);\r\n            product.stage = StageLib.ProductStage.Sold; \r\n            emit ProductPurchased(productId, product.clientId, msg.value);\r\n            emit ProductStageUpdated(productId, product.stage);\r\n        }\r\n    }\r\n\r\n    function getCurrentStage(uint256 productId) external view returns (StageLib.ProductStage) {\r\n        require(productId < nextProductId, \"Product does not exist\");\r\n        return products[productId].stage;\r\n    }\r\n\r\n    function getAllProducts() external view returns (Product[] memory) {\r\n        Product[] memory allProducts = new Product[](nextProductId - 1);\r\n\r\n        for (uint256 i = 1; i < nextProductId; i++) {\r\n            allProducts[i - 1] = products[i];\r\n        }\r\n\r\n        return allProducts;\r\n    }\r\n\r\n}\r\n",
  "sourcePath": "E:\\cursuri\\ANUL3-SEM2\\Blockchain\\proiect\\Blockchain-Supply-Chain-Tracker\\contracts\\Product.sol",
  "compiler": {
    "name": "solc",
    "version": "0.8.20+commit.a1b79de6.Emscripten.clang"
  },
  "schemaVersion": "3.4.16",
  "updatedAt": "2024-05-09T19:14:11.764Z",
  "devdoc": {
    "kind": "dev",
    "methods": {},
    "version": 1
  },
  "userdoc": {
    "kind": "user",
    "methods": {},
    "version": 1
  }
}