{
  "contractName": "AccessControlManager",
  "abi": [
    {
      "inputs": [],
      "stateMutability": "nonpayable",
      "type": "constructor"
    },
    {
      "inputs": [],
      "name": "AccessControlBadConfirmation",
      "type": "error"
    },
    {
      "inputs": [
        {
          "internalType": "address",
          "name": "account",
          "type": "address"
        },
        {
          "internalType": "bytes32",
          "name": "neededRole",
          "type": "bytes32"
        }
      ],
      "name": "AccessControlUnauthorizedAccount",
      "type": "error"
    },
    {
      "anonymous": false,
      "inputs": [
        {
          "indexed": true,
          "internalType": "uint256",
          "name": "id",
          "type": "uint256"
        },
        {
          "indexed": true,
          "internalType": "address",
          "name": "participantAddress",
          "type": "address"
        },
        {
          "indexed": false,
          "internalType": "bytes32",
          "name": "role",
          "type": "bytes32"
        }
      ],
      "name": "ParticipantAdded",
      "type": "event"
    },
    {
      "anonymous": false,
      "inputs": [
        {
          "indexed": true,
          "internalType": "bytes32",
          "name": "role",
          "type": "bytes32"
        },
        {
          "indexed": true,
          "internalType": "bytes32",
          "name": "previousAdminRole",
          "type": "bytes32"
        },
        {
          "indexed": true,
          "internalType": "bytes32",
          "name": "newAdminRole",
          "type": "bytes32"
        }
      ],
      "name": "RoleAdminChanged",
      "type": "event"
    },
    {
      "anonymous": false,
      "inputs": [
        {
          "indexed": true,
          "internalType": "bytes32",
          "name": "role",
          "type": "bytes32"
        },
        {
          "indexed": true,
          "internalType": "address",
          "name": "account",
          "type": "address"
        },
        {
          "indexed": true,
          "internalType": "address",
          "name": "sender",
          "type": "address"
        }
      ],
      "name": "RoleGranted",
      "type": "event"
    },
    {
      "anonymous": false,
      "inputs": [
        {
          "indexed": true,
          "internalType": "bytes32",
          "name": "role",
          "type": "bytes32"
        },
        {
          "indexed": true,
          "internalType": "address",
          "name": "account",
          "type": "address"
        },
        {
          "indexed": true,
          "internalType": "address",
          "name": "sender",
          "type": "address"
        }
      ],
      "name": "RoleRevoked",
      "type": "event"
    },
    {
      "inputs": [],
      "name": "CLIENT_ROLE",
      "outputs": [
        {
          "internalType": "bytes32",
          "name": "",
          "type": "bytes32"
        }
      ],
      "stateMutability": "view",
      "type": "function",
      "constant": true
    },
    {
      "inputs": [],
      "name": "DEFAULT_ADMIN_ROLE",
      "outputs": [
        {
          "internalType": "bytes32",
          "name": "",
          "type": "bytes32"
        }
      ],
      "stateMutability": "view",
      "type": "function",
      "constant": true
    },
    {
      "inputs": [],
      "name": "DISTRIBUTOR_ROLE",
      "outputs": [
        {
          "internalType": "bytes32",
          "name": "",
          "type": "bytes32"
        }
      ],
      "stateMutability": "view",
      "type": "function",
      "constant": true
    },
    {
      "inputs": [],
      "name": "MANUFACTURER_ROLE",
      "outputs": [
        {
          "internalType": "bytes32",
          "name": "",
          "type": "bytes32"
        }
      ],
      "stateMutability": "view",
      "type": "function",
      "constant": true
    },
    {
      "inputs": [],
      "name": "RAW_MATERIAL_SUPPLIER_ROLE",
      "outputs": [
        {
          "internalType": "bytes32",
          "name": "",
          "type": "bytes32"
        }
      ],
      "stateMutability": "view",
      "type": "function",
      "constant": true
    },
    {
      "inputs": [],
      "name": "RETAILER_ROLE",
      "outputs": [
        {
          "internalType": "bytes32",
          "name": "",
          "type": "bytes32"
        }
      ],
      "stateMutability": "view",
      "type": "function",
      "constant": true
    },
    {
      "inputs": [
        {
          "internalType": "bytes32",
          "name": "role",
          "type": "bytes32"
        }
      ],
      "name": "getRoleAdmin",
      "outputs": [
        {
          "internalType": "bytes32",
          "name": "",
          "type": "bytes32"
        }
      ],
      "stateMutability": "view",
      "type": "function",
      "constant": true
    },
    {
      "inputs": [
        {
          "internalType": "bytes32",
          "name": "role",
          "type": "bytes32"
        },
        {
          "internalType": "address",
          "name": "account",
          "type": "address"
        }
      ],
      "name": "grantRole",
      "outputs": [],
      "stateMutability": "nonpayable",
      "type": "function"
    },
    {
      "inputs": [
        {
          "internalType": "bytes32",
          "name": "role",
          "type": "bytes32"
        },
        {
          "internalType": "address",
          "name": "account",
          "type": "address"
        }
      ],
      "name": "hasRole",
      "outputs": [
        {
          "internalType": "bool",
          "name": "",
          "type": "bool"
        }
      ],
      "stateMutability": "view",
      "type": "function",
      "constant": true
    },
    {
      "inputs": [
        {
          "internalType": "bytes32",
          "name": "role",
          "type": "bytes32"
        },
        {
          "internalType": "address",
          "name": "callerConfirmation",
          "type": "address"
        }
      ],
      "name": "renounceRole",
      "outputs": [],
      "stateMutability": "nonpayable",
      "type": "function"
    },
    {
      "inputs": [
        {
          "internalType": "bytes32",
          "name": "role",
          "type": "bytes32"
        },
        {
          "internalType": "address",
          "name": "account",
          "type": "address"
        }
      ],
      "name": "revokeRole",
      "outputs": [],
      "stateMutability": "nonpayable",
      "type": "function"
    },
    {
      "inputs": [
        {
          "internalType": "bytes4",
          "name": "interfaceId",
          "type": "bytes4"
        }
      ],
      "name": "supportsInterface",
      "outputs": [
        {
          "internalType": "bool",
          "name": "",
          "type": "bool"
        }
      ],
      "stateMutability": "view",
      "type": "function",
      "constant": true
    },
    {
      "inputs": [
        {
          "internalType": "address",
          "name": "participantAddress",
          "type": "address"
        },
        {
          "internalType": "string",
          "name": "name",
          "type": "string"
        },
        {
          "internalType": "string",
          "name": "place",
          "type": "string"
        },
        {
          "internalType": "bytes32",
          "name": "role",
          "type": "bytes32"
        }
      ],
      "name": "addParticipant",
      "outputs": [],
      "stateMutability": "nonpayable",
      "type": "function"
    },
    {
      "inputs": [
        {
          "internalType": "address",
          "name": "participantAddress",
          "type": "address"
        }
      ],
      "name": "getParticipantId",
      "outputs": [
        {
          "internalType": "uint256",
          "name": "",
          "type": "uint256"
        }
      ],
      "stateMutability": "view",
      "type": "function",
      "constant": true
    },
    {
      "inputs": [
        {
          "internalType": "uint256",
          "name": "id",
          "type": "uint256"
        }
      ],
      "name": "getParticipantAddress",
      "outputs": [
        {
          "internalType": "address",
          "name": "",
          "type": "address"
        }
      ],
      "stateMutability": "view",
      "type": "function",
      "constant": true
    },
    {
      "inputs": [
        {
          "internalType": "uint256",
          "name": "id",
          "type": "uint256"
        }
      ],
      "name": "getParticipantDetails",
      "outputs": [
        {
          "components": [
            {
              "internalType": "uint256",
              "name": "id",
              "type": "uint256"
            },
            {
              "internalType": "address",
              "name": "participantAddress",
              "type": "address"
            },
            {
              "internalType": "string",
              "name": "name",
              "type": "string"
            },
            {
              "internalType": "string",
              "name": "place",
              "type": "string"
            },
            {
              "internalType": "bytes32",
              "name": "role",
              "type": "bytes32"
            }
          ],
          "internalType": "struct ParticipantLib.Participant",
          "name": "",
          "type": "tuple"
        }
      ],
      "stateMutability": "view",
      "type": "function",
      "constant": true
    }
  ],
  "bytecode": "0x60806040523480156200001157600080fd5b50620000276000801b336200003860201b60201c565b5060018060000181905550620001ad565b60006200004c83836200013b60201b60201c565b6200013057600160008085815260200190815260200160002060000160008473ffffffffffffffffffffffffffffffffffffffff1673ffffffffffffffffffffffffffffffffffffffff16815260200190815260200160002060006101000a81548160ff021916908315150217905550620000cc620001a560201b60201c565b73ffffffffffffffffffffffffffffffffffffffff168273ffffffffffffffffffffffffffffffffffffffff16847f2f8788117e7eff1d82e926ec794901d17c78024a50270940304540a733656f0d60405160405180910390a46001905062000135565b600090505b92915050565b600080600084815260200190815260200160002060000160008373ffffffffffffffffffffffffffffffffffffffff1673ffffffffffffffffffffffffffffffffffffffff16815260200190815260200160002060009054906101000a900460ff16905092915050565b600033905090565b611c4c80620001bd6000396000f3fe608060405234801561001057600080fd5b50600436106101005760003560e01c80639146470011610097578063d547741f11610066578063d547741f146102d3578063e3260776146102ef578063eae6f6521461030d578063f0bd87cc1461032b57610100565b8063914647001461024b57806391d1485414610267578063965288b014610297578063a217fddf146102b557610100565b806336568abe116100d357806336568abe1461019f5780635e7c857d146101bb578063635c06f2146101eb57806370e1d6581461021b57610100565b806301ffc9a7146101055780632115e7bf14610135578063248a9ca3146101535780632f2ff15d14610183575b600080fd5b61011f600480360381019061011a91906110c3565b610349565b60405161012c919061110b565b60405180910390f35b61013d6103c3565b60405161014a919061113f565b60405180910390f35b61016d60048036038101906101689190611186565b6103e7565b60405161017a919061113f565b60405180910390f35b61019d60048036038101906101989190611211565b610406565b005b6101b960048036038101906101b49190611211565b610428565b005b6101d560048036038101906101d09190611287565b6104a3565b6040516101e291906113ee565b60405180910390f35b61020560048036038101906102009190611287565b6104c6565b604051610212919061141f565b60405180910390f35b6102356004803603810190610230919061143a565b6104e3565b6040516102429190611476565b60405180910390f35b610265600480360381019061026091906115c6565b610500565b005b610281600480360381019061027c9190611211565b610613565b60405161028e919061110b565b60405180910390f35b61029f61067d565b6040516102ac919061113f565b60405180910390f35b6102bd6106a1565b6040516102ca919061113f565b60405180910390f35b6102ed60048036038101906102e89190611211565b6106a8565b005b6102f76106ca565b604051610304919061113f565b60405180910390f35b6103156106ee565b604051610322919061113f565b60405180910390f35b610333610712565b604051610340919061113f565b60405180910390f35b60007f7965db0b000000000000000000000000000000000000000000000000000000007bffffffffffffffffffffffffffffffffffffffffffffffffffffffff1916827bffffffffffffffffffffffffffffffffffffffffffffffffffffffff191614806103bc57506103bb82610736565b5b9050919050565b7f2a5f906c256a5d799494fcd066e1f6c077689de1cdb65052a1624de4bace99bf81565b6000806000838152602001908152602001600020600101549050919050565b61040f826103e7565b610418816107a0565b61042283836107b4565b50505050565b6104306108a5565b73ffffffffffffffffffffffffffffffffffffffff168173ffffffffffffffffffffffffffffffffffffffff1614610494576040517f6697b23200000000000000000000000000000000000000000000000000000000815260040160405180910390fd5b61049e82826108ad565b505050565b6104ab61100f565b6104bf82600161099f90919063ffffffff16565b9050919050565b60006104dc826001610baf90919063ffffffff16565b9050919050565b60006104f9826001610c4490919063ffffffff16565b9050919050565b61050d6000801b33610613565b61054c576040517f08c379a0000000000000000000000000000000000000000000000000000000008152600401610543906116e8565b60405180910390fd5b61055581610d13565b610594576040517f08c379a000000000000000000000000000000000000000000000000000000000815260040161058b906117a0565b60405180910390fd5b60006105b0858585856001610de790949392919063ffffffff16565b90506105bc82866107b4565b508473ffffffffffffffffffffffffffffffffffffffff16817fc5bec2867a43aba2b93227166c755409d179f4ea9c2d65a3d70d978d2468b98584604051610604919061113f565b60405180910390a35050505050565b600080600084815260200190815260200160002060000160008373ffffffffffffffffffffffffffffffffffffffff1673ffffffffffffffffffffffffffffffffffffffff16815260200190815260200160002060009054906101000a900460ff16905092915050565b7feefb95e842a3287179d933b4460be539a1d5af11aa8b325bb45c5c8dc92de4ed81565b6000801b81565b6106b1826103e7565b6106ba816107a0565b6106c483836108ad565b50505050565b7f463eda994401a3eac7c14104ee5d52ea8387d41eac3fbe156c61858d3416b8b281565b7fa5ff3ec7a96cdbba4d2d5172d66bbc73c6db3885f29b21be5da9fa7a7c02523281565b7ffbd454f36a7e1a388bd6fc3ab10d434aa4578f811acbbcf33afb1c697486313c81565b60007f01ffc9a7000000000000000000000000000000000000000000000000000000007bffffffffffffffffffffffffffffffffffffffffffffffffffffffff1916827bffffffffffffffffffffffffffffffffffffffffffffffffffffffff1916149050919050565b6107b1816107ac6108a5565b610fbe565b50565b60006107c08383610613565b61089a57600160008085815260200190815260200160002060000160008473ffffffffffffffffffffffffffffffffffffffff1673ffffffffffffffffffffffffffffffffffffffff16815260200190815260200160002060006101000a81548160ff0219169083151502179055506108376108a5565b73ffffffffffffffffffffffffffffffffffffffff168273ffffffffffffffffffffffffffffffffffffffff16847f2f8788117e7eff1d82e926ec794901d17c78024a50270940304540a733656f0d60405160405180910390a46001905061089f565b600090505b92915050565b600033905090565b60006108b98383610613565b1561099457600080600085815260200190815260200160002060000160008473ffffffffffffffffffffffffffffffffffffffff1673ffffffffffffffffffffffffffffffffffffffff16815260200190815260200160002060006101000a81548160ff0219169083151502179055506109316108a5565b73ffffffffffffffffffffffffffffffffffffffff168273ffffffffffffffffffffffffffffffffffffffff16847ff6391f5c32d9c69d2a47ea670b442974b53935d1edc7fd64eb21e047a839171b60405160405180910390a460019050610999565b600090505b92915050565b6109a761100f565b8260000154821080156109ba5750600082115b6109f9576040517f08c379a00000000000000000000000000000000000000000000000000000000081526004016109f09061180c565b60405180910390fd5b8260010160008381526020019081526020016000206040518060a0016040529081600082015481526020016001820160009054906101000a900473ffffffffffffffffffffffffffffffffffffffff1673ffffffffffffffffffffffffffffffffffffffff1673ffffffffffffffffffffffffffffffffffffffff168152602001600282018054610a899061185b565b80601f0160208091040260200160405190810160405280929190818152602001828054610ab59061185b565b8015610b025780601f10610ad757610100808354040283529160200191610b02565b820191906000526020600020905b815481529060010190602001808311610ae557829003601f168201915b50505050508152602001600382018054610b1b9061185b565b80601f0160208091040260200160405190810160405280929190818152602001828054610b479061185b565b8015610b945780601f10610b6957610100808354040283529160200191610b94565b820191906000526020600020905b815481529060010190602001808311610b7757829003601f168201915b50505050508152602001600482015481525050905092915050565b6000826000015482108015610bc45750600082115b610c03576040517f08c379a0000000000000000000000000000000000000000000000000000000008152600401610bfa9061180c565b60405180910390fd5b82600101600083815260200190815260200160002060010160009054906101000a900473ffffffffffffffffffffffffffffffffffffffff16905092915050565b6000808360020160008473ffffffffffffffffffffffffffffffffffffffff1673ffffffffffffffffffffffffffffffffffffffff1681526020019081526020016000205403610cc9576040517f08c379a0000000000000000000000000000000000000000000000000000000008152600401610cc09061180c565b60405180910390fd5b8260020160008373ffffffffffffffffffffffffffffffffffffffff1673ffffffffffffffffffffffffffffffffffffffff16815260200190815260200160002054905092915050565b60007f463eda994401a3eac7c14104ee5d52ea8387d41eac3fbe156c61858d3416b8b2821480610d6257507feefb95e842a3287179d933b4460be539a1d5af11aa8b325bb45c5c8dc92de4ed82145b80610d8c57507ffbd454f36a7e1a388bd6fc3ab10d434aa4578f811acbbcf33afb1c697486313c82145b80610db657507f2a5f906c256a5d799494fcd066e1f6c077689de1cdb65052a1624de4bace99bf82145b80610de057507fa5ff3ec7a96cdbba4d2d5172d66bbc73c6db3885f29b21be5da9fa7a7c02523282145b9050919050565b6000808660020160008773ffffffffffffffffffffffffffffffffffffffff1673ffffffffffffffffffffffffffffffffffffffff1681526020019081526020016000205414610e6c576040517f08c379a0000000000000000000000000000000000000000000000000000000008152600401610e63906118d8565b60405180910390fd5b6040518060a00160405280876000015481526020018673ffffffffffffffffffffffffffffffffffffffff16815260200185815260200184815260200183815250866001016000886000015481526020019081526020016000206000820151816000015560208201518160010160006101000a81548173ffffffffffffffffffffffffffffffffffffffff021916908373ffffffffffffffffffffffffffffffffffffffff1602179055506040820151816002019081610f2c9190611aa4565b506060820151816003019081610f429190611aa4565b506080820151816004015590505085600001548660020160008773ffffffffffffffffffffffffffffffffffffffff1673ffffffffffffffffffffffffffffffffffffffff16815260200190815260200160002081905550856000016000815480929190610faf90611ba5565b91905055905095945050505050565b610fc88282610613565b61100b5780826040517fe2517d3f000000000000000000000000000000000000000000000000000000008152600401611002929190611bed565b60405180910390fd5b5050565b6040518060a0016040528060008152602001600073ffffffffffffffffffffffffffffffffffffffff1681526020016060815260200160608152602001600080191681525090565b6000604051905090565b600080fd5b600080fd5b60007fffffffff0000000000000000000000000000000000000000000000000000000082169050919050565b6110a08161106b565b81146110ab57600080fd5b50565b6000813590506110bd81611097565b92915050565b6000602082840312156110d9576110d8611061565b5b60006110e7848285016110ae565b91505092915050565b60008115159050919050565b611105816110f0565b82525050565b600060208201905061112060008301846110fc565b92915050565b6000819050919050565b61113981611126565b82525050565b60006020820190506111546000830184611130565b92915050565b61116381611126565b811461116e57600080fd5b50565b6000813590506111808161115a565b92915050565b60006020828403121561119c5761119b611061565b5b60006111aa84828501611171565b91505092915050565b600073ffffffffffffffffffffffffffffffffffffffff82169050919050565b60006111de826111b3565b9050919050565b6111ee816111d3565b81146111f957600080fd5b50565b60008135905061120b816111e5565b92915050565b6000806040838503121561122857611227611061565b5b600061123685828601611171565b9250506020611247858286016111fc565b9150509250929050565b6000819050919050565b61126481611251565b811461126f57600080fd5b50565b6000813590506112818161125b565b92915050565b60006020828403121561129d5761129c611061565b5b60006112ab84828501611272565b91505092915050565b6112bd81611251565b82525050565b6112cc816111d3565b82525050565b600081519050919050565b600082825260208201905092915050565b60005b8381101561130c5780820151818401526020810190506112f1565b60008484015250505050565b6000601f19601f8301169050919050565b6000611334826112d2565b61133e81856112dd565b935061134e8185602086016112ee565b61135781611318565b840191505092915050565b61136b81611126565b82525050565b600060a08301600083015161138960008601826112b4565b50602083015161139c60208601826112c3565b50604083015184820360408601526113b48282611329565b915050606083015184820360608601526113ce8282611329565b91505060808301516113e36080860182611362565b508091505092915050565b600060208201905081810360008301526114088184611371565b905092915050565b611419816111d3565b82525050565b60006020820190506114346000830184611410565b92915050565b6000602082840312156114505761144f611061565b5b600061145e848285016111fc565b91505092915050565b61147081611251565b82525050565b600060208201905061148b6000830184611467565b92915050565b600080fd5b600080fd5b7f4e487b7100000000000000000000000000000000000000000000000000000000600052604160045260246000fd5b6114d382611318565b810181811067ffffffffffffffff821117156114f2576114f161149b565b5b80604052505050565b6000611505611057565b905061151182826114ca565b919050565b600067ffffffffffffffff8211156115315761153061149b565b5b61153a82611318565b9050602081019050919050565b82818337600083830152505050565b600061156961156484611516565b6114fb565b90508281526020810184848401111561158557611584611496565b5b611590848285611547565b509392505050565b600082601f8301126115ad576115ac611491565b5b81356115bd848260208601611556565b91505092915050565b600080600080608085870312156115e0576115df611061565b5b60006115ee878288016111fc565b945050602085013567ffffffffffffffff81111561160f5761160e611066565b5b61161b87828801611598565b935050604085013567ffffffffffffffff81111561163c5761163b611066565b5b61164887828801611598565b925050606061165987828801611171565b91505092959194509250565b600082825260208201905092915050565b7f4163636573732044656e6965643a204f6e6c792061646d696e732063616e207060008201527f6572666f726d207468697320616374696f6e0000000000000000000000000000602082015250565b60006116d2603283611665565b91506116dd82611676565b604082019050919050565b60006020820190508181036000830152611701816116c5565b9050919050565b7f496e76616c696420726f6c653a2076616c696420726f6c65732061726520524160008201527f575f4d4154455249414c5f535550504c4945522c204d414e554641435455524560208201527f522c204449535452494255544f522c2052455441494c45522c20434c49454e54604082015250565b600061178a606083611665565b915061179582611708565b606082019050919050565b600060208201905081810360008301526117b98161177d565b9050919050565b7f5061727469636970616e7420646f6573206e6f74206578697374000000000000600082015250565b60006117f6601a83611665565b9150611801826117c0565b602082019050919050565b60006020820190508181036000830152611825816117e9565b9050919050565b7f4e487b7100000000000000000000000000000000000000000000000000000000600052602260045260246000fd5b6000600282049050600182168061187357607f821691505b6020821081036118865761188561182c565b5b50919050565b7f5061727469636970616e7420616c726561647920657869737473000000000000600082015250565b60006118c2601a83611665565b91506118cd8261188c565b602082019050919050565b600060208201905081810360008301526118f1816118b5565b9050919050565b60008190508160005260206000209050919050565b60006020601f8301049050919050565b600082821b905092915050565b60006008830261195a7fffffffffffffffffffffffffffffffffffffffffffffffffffffffffffffffff8261191d565b611964868361191d565b95508019841693508086168417925050509392505050565b6000819050919050565b60006119a161199c61199784611251565b61197c565b611251565b9050919050565b6000819050919050565b6119bb83611986565b6119cf6119c7826119a8565b84845461192a565b825550505050565b600090565b6119e46119d7565b6119ef8184846119b2565b505050565b5b81811015611a1357611a086000826119dc565b6001810190506119f5565b5050565b601f821115611a5857611a29816118f8565b611a328461190d565b81016020851015611a41578190505b611a55611a4d8561190d565b8301826119f4565b50505b505050565b600082821c905092915050565b6000611a7b60001984600802611a5d565b1980831691505092915050565b6000611a948383611a6a565b9150826002028217905092915050565b611aad826112d2565b67ffffffffffffffff811115611ac657611ac561149b565b5b611ad0825461185b565b611adb828285611a17565b600060209050601f831160018114611b0e5760008415611afc578287015190505b611b068582611a88565b865550611b6e565b601f198416611b1c866118f8565b60005b82811015611b4457848901518255600182019150602085019450602081019050611b1f565b86831015611b615784890151611b5d601f891682611a6a565b8355505b6001600288020188555050505b505050505050565b7f4e487b7100000000000000000000000000000000000000000000000000000000600052601160045260246000fd5b6000611bb082611251565b91507fffffffffffffffffffffffffffffffffffffffffffffffffffffffffffffffff8203611be257611be1611b76565b5b600182019050919050565b6000604082019050611c026000830185611410565b611c0f6020830184611130565b939250505056fea2646970667358221220d310308344ba6d0a21dfbfddc82a0cfb9bfff5aef78432f659bf1942a734aa4f64736f6c63430008140033",
  "immutableReferences": {},
  "source": "// SPDX-License-Identifier: MIT\r\npragma solidity ^0.8.0;\r\n\r\nimport \"./libraries/ParticipantLib.sol\";\r\nimport \"@openzeppelin/contracts/access/AccessControl.sol\";\r\n\r\ncontract AccessControlManager is AccessControl {\r\n    using ParticipantLib for ParticipantLib.Data;\r\n\r\n    bytes32 public constant RAW_MATERIAL_SUPPLIER_ROLE = keccak256(\"RAW_MATERIAL_SUPPLIER_ROLE\");\r\n    bytes32 public constant MANUFACTURER_ROLE = keccak256(\"MANUFACTURER_ROLE\");\r\n    bytes32 public constant DISTRIBUTOR_ROLE = keccak256(\"DISTRIBUTOR_ROLE\");\r\n    bytes32 public constant RETAILER_ROLE = keccak256(\"RETAILER_ROLE\");\r\n    bytes32 public constant CLIENT_ROLE = keccak256(\"CLIENT_ROLE\");\r\n\r\n    ParticipantLib.Data private participantData;\r\n\r\n    event ParticipantAdded(uint256 indexed id, address indexed participantAddress, bytes32 role);\r\n\r\n    modifier onlyAdmin() {\r\n        require(hasRole(DEFAULT_ADMIN_ROLE, msg.sender), \"Access Denied: Only admins can perform this action\");\r\n        _;\r\n    }\r\n\r\n    constructor() {\r\n        _grantRole(DEFAULT_ADMIN_ROLE, msg.sender);\r\n        participantData.nextId = 1;\r\n    }\r\n\r\n    function addParticipant(address participantAddress, string memory name, string memory place, bytes32 role) external onlyAdmin {\r\n        require(isRoleValid(role), \"Invalid role: valid roles are RAW_MATERIAL_SUPPLIER, MANUFACTURER, DISTRIBUTOR, RETAILER, CLIENT\");\r\n\r\n        uint256 id = participantData.addParticipant(participantAddress, name, place, role);\r\n        _grantRole(role, participantAddress);\r\n        emit ParticipantAdded(id, participantAddress, role);\r\n    }\r\n\r\n    function getParticipantId(address participantAddress) public view returns (uint256) {\r\n        return participantData.getParticipantId(participantAddress);\r\n    }\r\n\r\n    function getParticipantAddress(uint256 id) public view returns (address) {\r\n        return participantData.getParticipantAddress(id);\r\n    }\r\n\r\n    function getParticipantDetails(uint256 id) external view returns (ParticipantLib.Participant memory) {\r\n        return participantData.getParticipant(id);\r\n    }\r\n\r\n    function isRoleValid(bytes32 role) private pure returns (bool) {\r\n        return role == RAW_MATERIAL_SUPPLIER_ROLE || \r\n               role == MANUFACTURER_ROLE ||\r\n               role == DISTRIBUTOR_ROLE || \r\n               role == RETAILER_ROLE ||\r\n               role == CLIENT_ROLE;\r\n    }\r\n}\r\n",
  "sourcePath": "C:\\Blockchain\\Blockchain-Supply-Chain-Tracker\\contracts\\AccessControlManager.sol",
  "compiler": {
    "name": "solc",
    "version": "0.8.20+commit.a1b79de6.Emscripten.clang"
  },
  "schemaVersion": "3.4.16",
  "updatedAt": "2024-05-13T19:12:23.645Z",
  "networkType": "ethereum",
  "devdoc": {
    "errors": {
      "AccessControlBadConfirmation()": [
        {
          "details": "The caller of a function is not the expected one. NOTE: Don't confuse with {AccessControlUnauthorizedAccount}."
        }
      ],
      "AccessControlUnauthorizedAccount(address,bytes32)": [
        {
          "details": "The `account` is missing a role."
        }
      ]
    },
    "events": {
      "RoleAdminChanged(bytes32,bytes32,bytes32)": {
        "details": "Emitted when `newAdminRole` is set as ``role``'s admin role, replacing `previousAdminRole` `DEFAULT_ADMIN_ROLE` is the starting admin for all roles, despite {RoleAdminChanged} not being emitted signaling this."
      },
      "RoleGranted(bytes32,address,address)": {
        "details": "Emitted when `account` is granted `role`. `sender` is the account that originated the contract call, an admin role bearer except when using {AccessControl-_setupRole}."
      },
      "RoleRevoked(bytes32,address,address)": {
        "details": "Emitted when `account` is revoked `role`. `sender` is the account that originated the contract call:   - if using `revokeRole`, it is the admin role bearer   - if using `renounceRole`, it is the role bearer (i.e. `account`)"
      }
    },
    "kind": "dev",
    "methods": {
      "getRoleAdmin(bytes32)": {
        "details": "Returns the admin role that controls `role`. See {grantRole} and {revokeRole}. To change a role's admin, use {_setRoleAdmin}."
      },
      "grantRole(bytes32,address)": {
        "details": "Grants `role` to `account`. If `account` had not been already granted `role`, emits a {RoleGranted} event. Requirements: - the caller must have ``role``'s admin role. May emit a {RoleGranted} event."
      },
      "hasRole(bytes32,address)": {
        "details": "Returns `true` if `account` has been granted `role`."
      },
      "renounceRole(bytes32,address)": {
        "details": "Revokes `role` from the calling account. Roles are often managed via {grantRole} and {revokeRole}: this function's purpose is to provide a mechanism for accounts to lose their privileges if they are compromised (such as when a trusted device is misplaced). If the calling account had been revoked `role`, emits a {RoleRevoked} event. Requirements: - the caller must be `callerConfirmation`. May emit a {RoleRevoked} event."
      },
      "revokeRole(bytes32,address)": {
        "details": "Revokes `role` from `account`. If `account` had been granted `role`, emits a {RoleRevoked} event. Requirements: - the caller must have ``role``'s admin role. May emit a {RoleRevoked} event."
      },
      "supportsInterface(bytes4)": {
        "details": "See {IERC165-supportsInterface}."
      }
    },
    "version": 1
  },
  "userdoc": {
    "kind": "user",
    "methods": {},
    "version": 1
  }
}