{
  "contractName": "ProductEscrow",
  "abi": [
    {
      "inputs": [
        {
          "internalType": "uint256",
          "name": "productId",
          "type": "uint256"
        },
        {
          "internalType": "address",
          "name": "depositor",
          "type": "address"
        }
      ],
      "name": "deposit",
      "outputs": [],
      "stateMutability": "payable",
      "type": "function"
    },
    {
      "inputs": [
        {
          "internalType": "uint256",
          "name": "productId",
          "type": "uint256"
        },
        {
          "internalType": "address payable",
          "name": "beneficiary",
          "type": "address"
        }
      ],
      "name": "release",
      "outputs": [],
      "stateMutability": "nonpayable",
      "type": "function"
    },
    {
      "inputs": [
        {
          "internalType": "uint256",
          "name": "productId",
          "type": "uint256"
        },
        {
          "internalType": "address",
          "name": "depositor",
          "type": "address"
        }
      ],
      "name": "depositsOf",
      "outputs": [
        {
          "internalType": "uint256",
          "name": "",
          "type": "uint256"
        }
      ],
      "stateMutability": "view",
      "type": "function"
    }
  ],
  "bytecode": "0x608060405234801561001057600080fd5b506103ad806100206000396000f3fe6080604052600436106100345760003560e01c80636c617ee8146100395780636e553f65146100a85780638124fea6146100f6575b600080fd5b34801561004557600080fd5b506100926004803603604081101561005c57600080fd5b8101908080359060200190929190803573ffffffffffffffffffffffffffffffffffffffff169060200190929190505050610151565b6040518082815260200191505060405180910390f35b6100f4600480360360408110156100be57600080fd5b8101908080359060200190929190803573ffffffffffffffffffffffffffffffffffffffff1690602001909291905050506101ab565b005b34801561010257600080fd5b5061014f6004803603604081101561011957600080fd5b8101908080359060200190929190803573ffffffffffffffffffffffffffffffffffffffff16906020019092919050505061020c565b005b600080600084815260200190815260200160002060008373ffffffffffffffffffffffffffffffffffffffff1673ffffffffffffffffffffffffffffffffffffffff16815260200190815260200160002054905092915050565b3460008084815260200190815260200160002060008373ffffffffffffffffffffffffffffffffffffffff1673ffffffffffffffffffffffffffffffffffffffff168152602001908152602001600020600082825401925050819055505050565b600080600084815260200190815260200160002060008373ffffffffffffffffffffffffffffffffffffffff1673ffffffffffffffffffffffffffffffffffffffff168152602001908152602001600020549050600081116102d6576040517f08c379a00000000000000000000000000000000000000000000000000000000081526004018080602001828103825260138152602001807f4e6f2066756e647320746f2072656c656173650000000000000000000000000081525060200191505060405180910390fd5b8173ffffffffffffffffffffffffffffffffffffffff166108fc829081150290604051600060405180830381858888f1935050505015801561031c573d6000803e3d6000fd5b50600080600085815260200190815260200160002060008473ffffffffffffffffffffffffffffffffffffffff1673ffffffffffffffffffffffffffffffffffffffff1681526020019081526020016000208190555050505056fea2646970667358221220e94df49bca8128514aae4e3accfd0a10b962729b1bba1c2d5b937b7c8fc9b15e64736f6c63430007000033",
  "immutableReferences": {},
  "source": "// SPDX-License-Identifier: MIT\r\npragma solidity ^0.7.0;\r\n\r\nimport \"@openzeppelin/contracts/payment/escrow/Escrow.sol\";\r\n\r\ncontract ProductEscrow {\r\n    mapping(uint256 => mapping(address => uint256)) private _deposits;\r\n\r\n    function deposit(uint256 productId, address depositor) public payable {\r\n        _deposits[productId][depositor] += msg.value;\r\n    }\r\n\r\n    function release(uint256 productId, address payable beneficiary) public {\r\n        uint256 amount = _deposits[productId][beneficiary];\r\n        require(amount > 0, \"No funds to release\");\r\n        beneficiary.transfer(amount);\r\n        _deposits[productId][beneficiary] = 0;\r\n    }\r\n\r\n    function depositsOf(uint256 productId, address depositor) public view returns (uint256) {\r\n        return _deposits[productId][depositor];\r\n    }\r\n}\r\n",
  "sourcePath": "C:\\Blockchain\\Blockchain-Supply-Chain-Tracker\\contracts\\ProductEscrow.sol",
  "compiler": {
    "name": "solc",
    "version": "0.7.0+commit.9e61f92b.Emscripten.clang"
  },
  "schemaVersion": "3.4.16",
  "updatedAt": "2024-04-16T16:06:57.068Z",
  "devdoc": {
    "kind": "dev",
    "methods": {},
    "version": 1
  },
  "userdoc": {
    "kind": "user",
    "methods": {},
    "version": 1
  }
}