{
  "contractName": "ProductContract",
  "abi": [
    {
      "inputs": [
        {
          "internalType": "address",
          "name": "accessControlAddress",
          "type": "address"
        }
      ],
      "stateMutability": "nonpayable",
      "type": "constructor"
    },
    {
      "anonymous": false,
      "inputs": [
        {
          "indexed": true,
          "internalType": "uint256",
          "name": "productId",
          "type": "uint256"
        },
        {
          "indexed": false,
          "internalType": "uint256",
          "name": "clientId",
          "type": "uint256"
        },
        {
          "indexed": false,
          "internalType": "uint256",
          "name": "amountPaid",
          "type": "uint256"
        }
      ],
      "name": "ProductPurchased",
      "type": "event"
    },
    {
      "anonymous": false,
      "inputs": [
        {
          "indexed": true,
          "internalType": "uint256",
          "name": "productId",
          "type": "uint256"
        },
        {
          "indexed": false,
          "internalType": "enum StageLib.ProductStage",
          "name": "stage",
          "type": "uint8"
        }
      ],
      "name": "ProductStageUpdated",
      "type": "event"
    },
    {
      "inputs": [],
      "name": "nextProductId",
      "outputs": [
        {
          "internalType": "uint256",
          "name": "",
          "type": "uint256"
        }
      ],
      "stateMutability": "view",
      "type": "function",
      "constant": true
    },
    {
      "inputs": [
        {
          "internalType": "uint256",
          "name": "",
          "type": "uint256"
        }
      ],
      "name": "products",
      "outputs": [
        {
          "components": [
            {
              "internalType": "uint256",
              "name": "id",
              "type": "uint256"
            },
            {
              "internalType": "string",
              "name": "name",
              "type": "string"
            },
            {
              "internalType": "string",
              "name": "description",
              "type": "string"
            },
            {
              "internalType": "uint256",
              "name": "price",
              "type": "uint256"
            }
          ],
          "internalType": "struct ProductLib.Product",
          "name": "details",
          "type": "tuple"
        },
        {
          "internalType": "enum StageLib.ProductStage",
          "name": "stage",
          "type": "uint8"
        },
        {
          "internalType": "uint256",
          "name": "supplierId",
          "type": "uint256"
        },
        {
          "internalType": "uint256",
          "name": "manufacturerId",
          "type": "uint256"
        },
        {
          "internalType": "uint256",
          "name": "distributorId",
          "type": "uint256"
        },
        {
          "internalType": "uint256",
          "name": "retailerId",
          "type": "uint256"
        },
        {
          "internalType": "uint256",
          "name": "clientId",
          "type": "uint256"
        }
      ],
      "stateMutability": "view",
      "type": "function",
      "constant": true
    },
    {
      "inputs": [
        {
          "internalType": "string",
          "name": "name",
          "type": "string"
        },
        {
          "internalType": "string",
          "name": "description",
          "type": "string"
        }
      ],
      "name": "addProduct",
      "outputs": [],
      "stateMutability": "nonpayable",
      "type": "function"
    },
    {
      "inputs": [
        {
          "internalType": "uint256",
          "name": "productId",
          "type": "uint256"
        },
        {
          "internalType": "uint256",
          "name": "price",
          "type": "uint256"
        }
      ],
      "name": "setProductPrice",
      "outputs": [],
      "stateMutability": "nonpayable",
      "type": "function"
    },
    {
      "inputs": [
        {
          "internalType": "uint256",
          "name": "productId",
          "type": "uint256"
        },
        {
          "internalType": "enum StageLib.ProductStage",
          "name": "newStage",
          "type": "uint8"
        }
      ],
      "name": "updateProductStage",
      "outputs": [],
      "stateMutability": "nonpayable",
      "type": "function"
    },
    {
      "inputs": [
        {
          "internalType": "uint256",
          "name": "productId",
          "type": "uint256"
        }
      ],
      "name": "purchaseProduct",
      "outputs": [],
      "stateMutability": "payable",
      "type": "function",
      "payable": true
    },
    {
      "inputs": [
        {
          "internalType": "uint256",
          "name": "productId",
          "type": "uint256"
        }
      ],
      "name": "getCurrentStage",
      "outputs": [
        {
          "internalType": "enum StageLib.ProductStage",
          "name": "",
          "type": "uint8"
        }
      ],
      "stateMutability": "view",
      "type": "function",
      "constant": true
    }
  ],
  "bytecode": "0x608060405260016002553480156200001657600080fd5b506040516200283e3803806200283e83398181016040528101906200003c9190620000ed565b806000806101000a81548173ffffffffffffffffffffffffffffffffffffffff021916908373ffffffffffffffffffffffffffffffffffffffff160217905550506200011f565b600080fd5b600073ffffffffffffffffffffffffffffffffffffffff82169050919050565b6000620000b58262000088565b9050919050565b620000c781620000a8565b8114620000d357600080fd5b50565b600081519050620000e781620000bc565b92915050565b60006020828403121562000106576200010562000083565b5b60006200011684828501620000d6565b91505092915050565b61270f806200012f6000396000f3fe6080604052600436106100705760003560e01c80634de91a631161004e5780634de91a63146100f75780636a13931d146101225780637acc0b201461014b578063ca2efb551461018e57610070565b80632458d4721461007557806338e76a03146100b257806344d3498a146100ce575b600080fd5b34801561008157600080fd5b5061009c60048036038101906100979190611625565b6101b7565b6040516100a991906116c9565b60405180910390f35b6100cc60048036038101906100c79190611625565b610228565b005b3480156100da57600080fd5b506100f560048036038101906100f091906116e4565b610730565b005b34801561010357600080fd5b5061010c61095c565b6040516101199190611733565b60405180910390f35b34801561012e57600080fd5b5061014960048036038101906101449190611773565b610962565b005b34801561015757600080fd5b50610172600480360381019061016d9190611625565b6111bd565b60405161018597969594939291906118bc565b60405180910390f35b34801561019a57600080fd5b506101b560048036038101906101b09190611a67565b61134e565b005b600060025482106101fd576040517f08c379a00000000000000000000000000000000000000000000000000000000081526004016101f490611b3c565b60405180910390fd5b6001600083815260200190815260200160002060040160009054906101000a900460ff169050919050565b600254811061026c576040517f08c379a000000000000000000000000000000000000000000000000000000000815260040161026390611b3c565b60405180910390fd5b60006001600083815260200190815260200160002090506004600581111561029757610296611652565b5b8160040160009054906101000a900460ff1660058111156102bb576102ba611652565b5b146102fb576040517f08c379a00000000000000000000000000000000000000000000000000000000081526004016102f290611bce565b60405180910390fd5b60008054906101000a900473ffffffffffffffffffffffffffffffffffffffff1673ffffffffffffffffffffffffffffffffffffffff166391d1485460008054906101000a900473ffffffffffffffffffffffffffffffffffffffff1673ffffffffffffffffffffffffffffffffffffffff1663eae6f6526040518163ffffffff1660e01b8152600401602060405180830381865afa1580156103a2573d6000803e3d6000fd5b505050506040513d601f19601f820116820180604052508101906103c69190611c24565b336040518363ffffffff1660e01b81526004016103e4929190611ca1565b602060405180830381865afa158015610401573d6000803e3d6000fd5b505050506040513d601f19601f820116820180604052508101906104259190611d02565b610464576040517f08c379a000000000000000000000000000000000000000000000000000000000815260040161045b90611da1565b60405180910390fd5b6004600581111561047857610477611652565b5b8160040160009054906101000a900460ff16600581111561049c5761049b611652565b5b0361072c57806000016003015434146104ea576040517f08c379a00000000000000000000000000000000000000000000000000000000081526004016104e190611e33565b60405180910390fd5b60008060009054906101000a900473ffffffffffffffffffffffffffffffffffffffff1673ffffffffffffffffffffffffffffffffffffffff1663635c06f283600801546040518263ffffffff1660e01b815260040161054a9190611733565b602060405180830381865afa158015610567573d6000803e3d6000fd5b505050506040513d601f19601f8201168201806040525081019061058b9190611e7f565b90508073ffffffffffffffffffffffffffffffffffffffff166108fc349081150290604051600060405180830381858888f193505050501580156105d3573d6000803e3d6000fd5b5060008054906101000a900473ffffffffffffffffffffffffffffffffffffffff1673ffffffffffffffffffffffffffffffffffffffff166370e1d658336040518263ffffffff1660e01b815260040161062d9190611eac565b602060405180830381865afa15801561064a573d6000803e3d6000fd5b505050506040513d601f19601f8201168201806040525081019061066e9190611edc565b826009018190555060058260040160006101000a81548160ff0219169083600581111561069e5761069d611652565b5b0217905550827fbc204f0d66f02b93dc53f5f031e6d79f10938175b847cdf2587aafe8ce4d923b8360090154346040516106d9929190611f09565b60405180910390a2827fdb1adf3543039f5d54bb67ebf175b8ef7ba88285d54355d6c564b2478877a4428360040160009054906101000a900460ff1660405161072291906116c9565b60405180910390a2505b5050565b600254821080156107885750600460058111156107505761074f611652565b5b6001600084815260200190815260200160002060040160009054906101000a900460ff16600581111561078657610785611652565b5b145b6107c7576040517f08c379a00000000000000000000000000000000000000000000000000000000081526004016107be90611f7e565b60405180910390fd5b60008054906101000a900473ffffffffffffffffffffffffffffffffffffffff1673ffffffffffffffffffffffffffffffffffffffff166391d1485460008054906101000a900473ffffffffffffffffffffffffffffffffffffffff1673ffffffffffffffffffffffffffffffffffffffff16632115e7bf6040518163ffffffff1660e01b8152600401602060405180830381865afa15801561086e573d6000803e3d6000fd5b505050506040513d601f19601f820116820180604052508101906108929190611c24565b336040518363ffffffff1660e01b81526004016108b0929190611ca1565b602060405180830381865afa1580156108cd573d6000803e3d6000fd5b505050506040513d601f19601f820116820180604052508101906108f19190611d02565b610930576040517f08c379a000000000000000000000000000000000000000000000000000000000815260040161092790611fea565b60405180910390fd5b610958816001600085815260200190815260200160002060000161154490919063ffffffff16565b5050565b60025481565b60025482106109a6576040517f08c379a000000000000000000000000000000000000000000000000000000000815260040161099d90611b3c565b60405180910390fd5b6109d36001600084815260200190815260200160002060040160009054906101000a900460ff1682611551565b610a12576040517f08c379a0000000000000000000000000000000000000000000000000000000008152600401610a0990612056565b60405180910390fd5b600060016000848152602001908152602001600020905060008060009054906101000a900473ffffffffffffffffffffffffffffffffffffffff1673ffffffffffffffffffffffffffffffffffffffff166370e1d658336040518263ffffffff1660e01b8152600401610a859190611eac565b602060405180830381865afa158015610aa2573d6000803e3d6000fd5b505050506040513d601f19601f82011682018060405250810190610ac69190611edc565b905060016005811115610adc57610adb611652565b5b836005811115610aef57610aee611652565b5b03610c6b5760008054906101000a900473ffffffffffffffffffffffffffffffffffffffff1673ffffffffffffffffffffffffffffffffffffffff166391d1485460008054906101000a900473ffffffffffffffffffffffffffffffffffffffff1673ffffffffffffffffffffffffffffffffffffffff1663e32607766040518163ffffffff1660e01b8152600401602060405180830381865afa158015610b9b573d6000803e3d6000fd5b505050506040513d601f19601f82011682018060405250810190610bbf9190611c24565b336040518363ffffffff1660e01b8152600401610bdd929190611ca1565b602060405180830381865afa158015610bfa573d6000803e3d6000fd5b505050506040513d601f19601f82011682018060405250810190610c1e9190611d02565b610c5d576040517f08c379a0000000000000000000000000000000000000000000000000000000008152600401610c549061210e565b60405180910390fd5b808260050181905550611153565b60026005811115610c7f57610c7e611652565b5b836005811115610c9257610c91611652565b5b03610e0e5760008054906101000a900473ffffffffffffffffffffffffffffffffffffffff1673ffffffffffffffffffffffffffffffffffffffff166391d1485460008054906101000a900473ffffffffffffffffffffffffffffffffffffffff1673ffffffffffffffffffffffffffffffffffffffff1663965288b06040518163ffffffff1660e01b8152600401602060405180830381865afa158015610d3e573d6000803e3d6000fd5b505050506040513d601f19601f82011682018060405250810190610d629190611c24565b336040518363ffffffff1660e01b8152600401610d80929190611ca1565b602060405180830381865afa158015610d9d573d6000803e3d6000fd5b505050506040513d601f19601f82011682018060405250810190610dc19190611d02565b610e00576040517f08c379a0000000000000000000000000000000000000000000000000000000008152600401610df7906121a0565b60405180910390fd5b808260060181905550611152565b60036005811115610e2257610e21611652565b5b836005811115610e3557610e34611652565b5b03610fb15760008054906101000a900473ffffffffffffffffffffffffffffffffffffffff1673ffffffffffffffffffffffffffffffffffffffff166391d1485460008054906101000a900473ffffffffffffffffffffffffffffffffffffffff1673ffffffffffffffffffffffffffffffffffffffff1663f0bd87cc6040518163ffffffff1660e01b8152600401602060405180830381865afa158015610ee1573d6000803e3d6000fd5b505050506040513d601f19601f82011682018060405250810190610f059190611c24565b336040518363ffffffff1660e01b8152600401610f23929190611ca1565b602060405180830381865afa158015610f40573d6000803e3d6000fd5b505050506040513d601f19601f82011682018060405250810190610f649190611d02565b610fa3576040517f08c379a0000000000000000000000000000000000000000000000000000000008152600401610f9a90612232565b60405180910390fd5b808260070181905550611151565b60046005811115610fc557610fc4611652565b5b836005811115610fd857610fd7611652565b5b036111505760008054906101000a900473ffffffffffffffffffffffffffffffffffffffff1673ffffffffffffffffffffffffffffffffffffffff166391d1485460008054906101000a900473ffffffffffffffffffffffffffffffffffffffff1673ffffffffffffffffffffffffffffffffffffffff16632115e7bf6040518163ffffffff1660e01b8152600401602060405180830381865afa158015611084573d6000803e3d6000fd5b505050506040513d601f19601f820116820180604052508101906110a89190611c24565b336040518363ffffffff1660e01b81526004016110c6929190611ca1565b602060405180830381865afa1580156110e3573d6000803e3d6000fd5b505050506040513d601f19601f820116820180604052508101906111079190611d02565b611146576040517f08c379a000000000000000000000000000000000000000000000000000000000815260040161113d906122c4565b60405180910390fd5b8082600801819055505b5b5b5b828260040160006101000a81548160ff0219169083600581111561117a57611179611652565b5b0217905550837fdb1adf3543039f5d54bb67ebf175b8ef7ba88285d54355d6c564b2478877a442846040516111af91906116c9565b60405180910390a250505050565b600160205280600052604060002060009150905080600001604051806080016040529081600082015481526020016001820180546111fa90612313565b80601f016020809104026020016040519081016040528092919081815260200182805461122690612313565b80156112735780601f1061124857610100808354040283529160200191611273565b820191906000526020600020905b81548152906001019060200180831161125657829003601f168201915b5050505050815260200160028201805461128c90612313565b80601f01602080910402602001604051908101604052809291908181526020018280546112b890612313565b80156113055780601f106112da57610100808354040283529160200191611305565b820191906000526020600020905b8154815290600101906020018083116112e857829003601f168201915b50505050508152602001600382015481525050908060040160009054906101000a900460ff16908060050154908060060154908060070154908060080154908060090154905087565b60008054906101000a900473ffffffffffffffffffffffffffffffffffffffff1673ffffffffffffffffffffffffffffffffffffffff166391d1485460008054906101000a900473ffffffffffffffffffffffffffffffffffffffff1673ffffffffffffffffffffffffffffffffffffffff1663a217fddf6040518163ffffffff1660e01b8152600401602060405180830381865afa1580156113f5573d6000803e3d6000fd5b505050506040513d601f19601f820116820180604052508101906114199190611c24565b336040518363ffffffff1660e01b8152600401611437929190611ca1565b602060405180830381865afa158015611454573d6000803e3d6000fd5b505050506040513d601f19601f820116820180604052508101906114789190611d02565b6114b7576040517f08c379a00000000000000000000000000000000000000000000000000000000081526004016114ae90612390565b60405180910390fd5b6114e7600254838360016000600254815260200190815260200160002060000161159e909392919063ffffffff16565b600060016000600254815260200190815260200160002060040160006101000a81548160ff0219169083600581111561152357611522611652565b5b02179055506002600081548092919061153b906123df565b91905055505050565b8082600301819055505050565b6000600183600581111561156857611567611652565b5b6115729190612427565b82600581111561158557611584611652565b5b036115935760019050611598565b600090505b92915050565b828460000181905550818460010190816115b89190612607565b50808460020190816115ca9190612607565b506000846003018190555050505050565b6000604051905090565b600080fd5b600080fd5b6000819050919050565b611602816115ef565b811461160d57600080fd5b50565b60008135905061161f816115f9565b92915050565b60006020828403121561163b5761163a6115e5565b5b600061164984828501611610565b91505092915050565b7f4e487b7100000000000000000000000000000000000000000000000000000000600052602160045260246000fd5b6006811061169257611691611652565b5b50565b60008190506116a382611681565b919050565b60006116b382611695565b9050919050565b6116c3816116a8565b82525050565b60006020820190506116de60008301846116ba565b92915050565b600080604083850312156116fb576116fa6115e5565b5b600061170985828601611610565b925050602061171a85828601611610565b9150509250929050565b61172d816115ef565b82525050565b60006020820190506117486000830184611724565b92915050565b6006811061175b57600080fd5b50565b60008135905061176d8161174e565b92915050565b6000806040838503121561178a576117896115e5565b5b600061179885828601611610565b92505060206117a98582860161175e565b9150509250929050565b6117bc816115ef565b82525050565b600081519050919050565b600082825260208201905092915050565b60005b838110156117fc5780820151818401526020810190506117e1565b60008484015250505050565b6000601f19601f8301169050919050565b6000611824826117c2565b61182e81856117cd565b935061183e8185602086016117de565b61184781611808565b840191505092915050565b600060808301600083015161186a60008601826117b3565b50602083015184820360208601526118828282611819565b9150506040830151848203604086015261189c8282611819565b91505060608301516118b160608601826117b3565b508091505092915050565b600060e08201905081810360008301526118d6818a611852565b90506118e560208301896116ba565b6118f26040830188611724565b6118ff6060830187611724565b61190c6080830186611724565b61191960a0830185611724565b61192660c0830184611724565b98975050505050505050565b600080fd5b600080fd5b7f4e487b7100000000000000000000000000000000000000000000000000000000600052604160045260246000fd5b61197482611808565b810181811067ffffffffffffffff821117156119935761199261193c565b5b80604052505050565b60006119a66115db565b90506119b2828261196b565b919050565b600067ffffffffffffffff8211156119d2576119d161193c565b5b6119db82611808565b9050602081019050919050565b82818337600083830152505050565b6000611a0a611a05846119b7565b61199c565b905082815260208101848484011115611a2657611a25611937565b5b611a318482856119e8565b509392505050565b600082601f830112611a4e57611a4d611932565b5b8135611a5e8482602086016119f7565b91505092915050565b60008060408385031215611a7e57611a7d6115e5565b5b600083013567ffffffffffffffff811115611a9c57611a9b6115ea565b5b611aa885828601611a39565b925050602083013567ffffffffffffffff811115611ac957611ac86115ea565b5b611ad585828601611a39565b9150509250929050565b600082825260208201905092915050565b7f50726f6475637420646f6573206e6f7420657869737400000000000000000000600082015250565b6000611b26601683611adf565b9150611b3182611af0565b602082019050919050565b60006020820190508181036000830152611b5581611b19565b9050919050565b7f50726f647563742073686f756c6420626520696e2052657461696c20696e206f60008201527f7264657220746f20627579000000000000000000000000000000000000000000602082015250565b6000611bb8602b83611adf565b9150611bc382611b5c565b604082019050919050565b60006020820190508181036000830152611be781611bab565b9050919050565b6000819050919050565b611c0181611bee565b8114611c0c57600080fd5b50565b600081519050611c1e81611bf8565b92915050565b600060208284031215611c3a57611c396115e5565b5b6000611c4884828501611c0f565b91505092915050565b611c5a81611bee565b82525050565b600073ffffffffffffffffffffffffffffffffffffffff82169050919050565b6000611c8b82611c60565b9050919050565b611c9b81611c80565b82525050565b6000604082019050611cb66000830185611c51565b611cc36020830184611c92565b9392505050565b60008115159050919050565b611cdf81611cca565b8114611cea57600080fd5b50565b600081519050611cfc81611cd6565b92915050565b600060208284031215611d1857611d176115e5565b5b6000611d2684828501611ced565b91505092915050565b7f556e617574686f72697a65643a204f6e6c7920636c69656e74732063616e207060008201527f7572636861732070726f64756374730000000000000000000000000000000000602082015250565b6000611d8b602f83611adf565b9150611d9682611d2f565b604082019050919050565b60006020820190508181036000830152611dba81611d7e565b9050919050565b7f4d757374207061792065786163746c79207468652070726f647563742070726960008201527f6365000000000000000000000000000000000000000000000000000000000000602082015250565b6000611e1d602283611adf565b9150611e2882611dc1565b604082019050919050565b60006020820190508181036000830152611e4c81611e10565b9050919050565b611e5c81611c80565b8114611e6757600080fd5b50565b600081519050611e7981611e53565b92915050565b600060208284031215611e9557611e946115e5565b5b6000611ea384828501611e6a565b91505092915050565b6000602082019050611ec16000830184611c92565b92915050565b600081519050611ed6816115f9565b92915050565b600060208284031215611ef257611ef16115e5565b5b6000611f0084828501611ec7565b91505092915050565b6000604082019050611f1e6000830185611724565b611f2b6020830184611724565b9392505050565b7f50726f64756374206973206e6f742061742072657461696c2073746167650000600082015250565b6000611f68601e83611adf565b9150611f7382611f32565b602082019050919050565b60006020820190508181036000830152611f9781611f5b565b9050919050565b7f4f6e6c792072657461696c6572732063616e2073657420746865207072696365600082015250565b6000611fd4602083611adf565b9150611fdf82611f9e565b602082019050919050565b6000602082019050818103600083015261200381611fc7565b9050919050565b7f496e76616c6964207374616765207472616e736974696f6e0000000000000000600082015250565b6000612040601883611adf565b915061204b8261200a565b602082019050919050565b6000602082019050818103600083015261206f81612033565b9050919050565b7f556e617574686f72697a65643a204f6e6c7920726177206d6174657269616c2060008201527f737570706c696572732063616e2075706461746520746f20746869732073746160208201527f6765000000000000000000000000000000000000000000000000000000000000604082015250565b60006120f8604283611adf565b915061210382612076565b606082019050919050565b60006020820190508181036000830152612127816120eb565b9050919050565b7f556e617574686f72697a65643a204f6e6c79206d616e7566616374757265727360008201527f2063616e2075706461746520746f207468697320737461676500000000000000602082015250565b600061218a603983611adf565b91506121958261212e565b604082019050919050565b600060208201905081810360008301526121b98161217d565b9050919050565b7f556e617574686f72697a65643a204f6e6c79206469737472696275746f72732060008201527f63616e2075706461746520746f20746869732073746167650000000000000000602082015250565b600061221c603883611adf565b9150612227826121c0565b604082019050919050565b6000602082019050818103600083015261224b8161220f565b9050919050565b7f556e617574686f72697a65643a204f6e6c792072657461696c6572732063616e60008201527f2075706461746520746f20746869732073746167650000000000000000000000602082015250565b60006122ae603583611adf565b91506122b982612252565b604082019050919050565b600060208201905081810360008301526122dd816122a1565b9050919050565b7f4e487b7100000000000000000000000000000000000000000000000000000000600052602260045260246000fd5b6000600282049050600182168061232b57607f821691505b60208210810361233e5761233d6122e4565b5b50919050565b7f4f6e6c792061646d696e2063616e206164642070726f64756374730000000000600082015250565b600061237a601b83611adf565b915061238582612344565b602082019050919050565b600060208201905081810360008301526123a98161236d565b9050919050565b7f4e487b7100000000000000000000000000000000000000000000000000000000600052601160045260246000fd5b60006123ea826115ef565b91507fffffffffffffffffffffffffffffffffffffffffffffffffffffffffffffffff820361241c5761241b6123b0565b5b600182019050919050565b6000612432826115ef565b915061243d836115ef565b9250828201905080821115612455576124546123b0565b5b92915050565b60008190508160005260206000209050919050565b60006020601f8301049050919050565b600082821b905092915050565b6000600883026124bd7fffffffffffffffffffffffffffffffffffffffffffffffffffffffffffffffff82612480565b6124c78683612480565b95508019841693508086168417925050509392505050565b6000819050919050565b60006125046124ff6124fa846115ef565b6124df565b6115ef565b9050919050565b6000819050919050565b61251e836124e9565b61253261252a8261250b565b84845461248d565b825550505050565b600090565b61254761253a565b612552818484612515565b505050565b5b818110156125765761256b60008261253f565b600181019050612558565b5050565b601f8211156125bb5761258c8161245b565b61259584612470565b810160208510156125a4578190505b6125b86125b085612470565b830182612557565b50505b505050565b600082821c905092915050565b60006125de600019846008026125c0565b1980831691505092915050565b60006125f783836125cd565b9150826002028217905092915050565b612610826117c2565b67ffffffffffffffff8111156126295761262861193c565b5b6126338254612313565b61263e82828561257a565b600060209050601f831160018114612671576000841561265f578287015190505b61266985826125eb565b8655506126d1565b601f19841661267f8661245b565b60005b828110156126a757848901518255600182019150602085019450602081019050612682565b868310156126c457848901516126c0601f8916826125cd565b8355505b6001600288020188555050505b50505050505056fea26469706673582212205ea67a8717dc0da09fabdaee16120aa83deba75f5acb35f50daff0723ada7afd64736f6c63430008140033",
  "immutableReferences": {},
  "source": "// SPDX-License-Identifier: MIT\r\npragma solidity ^0.8.0;\r\n\r\nimport \"./AccessControlManager.sol\";\r\nimport \"./libraries/ProductLib.sol\";\r\nimport \"./libraries/StageLib.sol\";\r\n\r\n\r\ncontract ProductContract {\r\n    using ProductLib for ProductLib.Product;\r\n    using StageLib for StageLib.ProductStage;\r\n\r\n    AccessControlManager accessControl;\r\n \r\n\r\n    struct Product {\r\n        ProductLib.Product details;\r\n        StageLib.ProductStage stage;\r\n        uint256 supplierId;\r\n        uint256 manufacturerId;\r\n        uint256 distributorId;\r\n        uint256 retailerId;\r\n        uint256 clientId;\r\n    }\r\n\r\n    mapping(uint256 => Product) public products;\r\n    uint256 public nextProductId = 1;\r\n\r\n    event ProductStageUpdated(uint256 indexed productId, StageLib.ProductStage stage);\r\n    event ProductPurchased(uint256 indexed productId, uint256 clientId, uint256 amountPaid);\r\n\r\n    constructor(address accessControlAddress) {\r\n        accessControl = AccessControlManager(accessControlAddress);\r\n    }\r\n\r\n    function addProduct(string memory name, string memory description) external {\r\n        require(accessControl.hasRole(accessControl.DEFAULT_ADMIN_ROLE(), msg.sender), \"Only admin can add products\");\r\n        products[nextProductId].details.createProduct(nextProductId, name, description);\r\n        products[nextProductId].stage = StageLib.ProductStage.Ordered;\r\n        nextProductId++;\r\n    }\r\n\r\n    function setProductPrice(uint256 productId, uint256 price) external {\r\n        require(productId < nextProductId && products[productId].stage == StageLib.ProductStage.Retail, \"Product is not at retail stage\");\r\n        require(accessControl.hasRole(accessControl.RETAILER_ROLE(), msg.sender), \"Only retailers can set the price\");\r\n        products[productId].details.setPrice(price);\r\n    }\r\n\r\n    function updateProductStage(uint256 productId, StageLib.ProductStage newStage) public {\r\n        require(productId < nextProductId, \"Product does not exist\");\r\n        require(isValidStageTransition(products[productId].stage, newStage), \"Invalid stage transition\");\r\n        \r\n        \r\n        Product storage product = products[productId];\r\n        uint256 participantId = accessControl.getParticipantId(msg.sender);\r\n\r\n        if (newStage == StageLib.ProductStage.RawMaterialsProcured) {\r\n            require(accessControl.hasRole(accessControl.RAW_MATERIAL_SUPPLIER_ROLE(), msg.sender), \"Unauthorized: Only raw material suppliers can update to this stage\");\r\n            product.supplierId = participantId;\r\n        } else if (newStage == StageLib.ProductStage.Manufactured) {\r\n            require(accessControl.hasRole(accessControl.MANUFACTURER_ROLE(), msg.sender), \"Unauthorized: Only manufacturers can update to this stage\");\r\n            product.manufacturerId = participantId;\r\n        } else if (newStage == StageLib.ProductStage.Distributed) {\r\n            require(accessControl.hasRole(accessControl.DISTRIBUTOR_ROLE(), msg.sender), \"Unauthorized: Only distributors can update to this stage\");\r\n            product.distributorId = participantId;\r\n        } else if (newStage == StageLib.ProductStage.Retail) {\r\n            require(accessControl.hasRole(accessControl.RETAILER_ROLE(), msg.sender), \"Unauthorized: Only retailers can update to this stage\");\r\n            product.retailerId = participantId;\r\n        }    \r\n       \r\n        product.stage = newStage;\r\n        emit ProductStageUpdated(productId, newStage); \r\n        \r\n    }\r\n\r\n    function isValidStageTransition(StageLib.ProductStage currentStage, StageLib.ProductStage newStage) internal pure returns (bool) {\r\n    if (uint(newStage) == uint(currentStage) + 1) {\r\n        return true;\r\n    }\r\n    return false;\r\n}\r\n\r\n    function purchaseProduct(uint256 productId) external payable {\r\n\r\n        require(productId < nextProductId, \"Product does not exist\");\r\n        Product storage product = products[productId];\r\n\r\n        require (product.stage == StageLib.ProductStage.Retail, \"Product should be in Retail in order to buy\");\r\n        require(accessControl.hasRole(accessControl.CLIENT_ROLE(), msg.sender), \"Unauthorized: Only clients can purchas products\");\r\n\r\n        if (product.stage == StageLib.ProductStage.Retail) {\r\n            \r\n            require(msg.value == product.details.price, \"Must pay exactly the product price\");\r\n            address payable recipient = payable(accessControl.getParticipantAddress(product.retailerId));\r\n            recipient.transfer(msg.value); \r\n            product.clientId = accessControl.getParticipantId(msg.sender);\r\n            product.stage = StageLib.ProductStage.Sold; \r\n            emit ProductPurchased(productId, product.clientId, msg.value);\r\n            emit ProductStageUpdated(productId, product.stage);\r\n        }\r\n    }\r\n\r\n    function getCurrentStage(uint256 productId) external view returns (StageLib.ProductStage) {\r\n        require(productId < nextProductId, \"Product does not exist\");\r\n        return products[productId].stage;\r\n    }\r\n}\r\n",
  "sourcePath": "C:\\Blockchain\\Blockchain-Supply-Chain-Tracker\\contracts\\Product.sol",
  "compiler": {
    "name": "solc",
    "version": "0.8.20+commit.a1b79de6.Emscripten.clang"
  },
  "schemaVersion": "3.4.16",
  "updatedAt": "2024-05-13T19:12:23.651Z",
  "networkType": "ethereum",
  "devdoc": {
    "kind": "dev",
    "methods": {},
    "version": 1
  },
  "userdoc": {
    "kind": "user",
    "methods": {},
    "version": 1
  }
}